:100000000C944B040C9468040C9468040C946804DD
:100010000C94A8230C94E2230C9468040C946804B8
:100020000C9468040C9468040C9468040C945D228D
:100030000C9468040C9468040C94E5210C946804F6
:100040000C9468040C9468040C940F2B0C94AD2B46
:100050000C9468040C943E1D0C9468040C94680481
:100060000C9468040C9468040C0704071307E80652
:10007000DA069306FC0696189618EF189618961846
:1000800096189618EF18EF18EF180D1C371C511C16
:10009000241B781C871CB31BBB21A7219E21942104
:1000A0008D2184217221C2210429E828FB28E82817
:1000B000FB28FB2804290429FB28FB28E828FB2827
:1000C000E8280429180AF709110AD20D030FCA12E9
:1000D0003E0BE90B3E0EAE0F8F0A490AF20A7B1364
:1000E0009813B513B90C46144E14390E8610081423
:1000F0000D0A000A020100040702000004030203C3
:100100000004FD0100000AF70101000AF2010200EB
:100110000AED0103000AE80104000AE20105000AF1
:10012000E001000003DE01010003DC01020003D650
:1001300001030003D001040003CB01050003C50146
:10014000060003C00101000CBD0102000CB7010054
:100150000006B101010006AA01020006A301030086
:10016000069F010400069B01050006970106000694
:100170008F0107000687010800067F010900066657
:100180006173746F757400756E69746F7574007A3D
:1001900065726F6F7574007A696E0062696E0061D6
:1001A000696E0064617461696E00636C6B6F757475
:1001B00000636C6B696E00756E646566006D6D0042
:1001C000696E6368006F74686572006564676500D6
:1001D000746163686F00616E676C65007A00790016
:1001E000780070756C736500717561640062696E8A
:1001F00036006263643700323162697400323462FF
:10020000697400307C31003130003031009D0201D2
:100210009A02029502038D02048902056D02068589
:1002200002078102087E02097C020A77020B720231
:100230000C90020D6A020E67020F6302105E02113B
:100240005A02125502135102144C02156C756D6955
:1002500000636E7400646F666600646F6E006E6F9C
:10026000746500736D700070720065780074797049
:100270006500756E69740074696D6500700063686F
:10028000006D7367006C656400696E7600696C00D0
:10029000667265710066756E6300656900646576F7
:1002A000005A0354034F03480342033E033703300D
:1002B00003290323031B0315030D030403FD02F6A7
:1002C00002EE02E902E402DC02D502CD026C6564B2
:1002D0006C756D6900746573746368006564697436
:1002E0006465760073617665006C6F6164006C65AF
:1002F00064696E666F006C65646D7367006C65643D
:10030000636C72006C6564626C696E6B006B65791E
:10031000696E666F0061626F757400646576696E00
:10032000666F0064656C63680064656C6465760084
:10033000656469746368006368696E666F006275FE
:100340007A00616464636800616464646576006572
:100350007869740073657475700068656C70003E30
:100360000021040C04FB03E603C203B003940386DC
:10037000037303746F6F206D616E7920617267750E
:100380006D656E7473006F7574206F66206D656D9A
:100390006F72790072657175697265642061726748
:1003A000756D656E74206E6F7420666F756E640077
:1003B000636F6D6D616E64206E6F7420666F756E15
:1003C0006400696E76616C69642076616C75652085
:1003D000666F7220617267756D656E742027257374
:1003E000273A20257300696E76616C69642061721A
:1003F00067756D656E743A20257300696E76616C61
:1004000069642070726F746F636F6C00696E7661DF
:100410006C6964206368616E6E656C2074797065C8
:10042000006368616E6E656C206973206275737914
:10043000002573202D204572726F723A20002573BB
:10044000202D204F4B005D050100045A05000004DB
:100450005605030004500500000A4A0501000A453C
:100460000502000A400503000A3B0504000A3505A1
:1004700005000A330500000331050100032F0502C2
:100480000003290503000323050400031E050500DE
:10049000031805060003130501000C100502000CEB
:1004A0000A050000060405010006FD04020006F628
:1004B00004030006F204040006EE04050006EA0444
:1004C000060006E204070006DA04080006D2040962
:1004D0000006666173746F757400756E69746F756C
:1004E00074007A65726F6F7574007A696E00626964
:1004F0006E0061696E0064617461696E00636C6BAB
:100500006F757400636C6B696E00756E6465660070
:100510006D6D00696E6368006F7468657200656474
:10052000676500746163686F00616E676C65007A6F
:10053000007900780070756C7365007175616400F6
:1005400062696E360062636437003231626974003A
:10055000323462697400307C310031300030310057
:10056000F00501ED0502E80503E00504DC0505C022
:100570000506D80507D40508D10509CF050ACA051F
:100580000BC5050CE3050DBD050EBA050FB605102C
:10059000B10511AD0512A80513A405149F05156C2E
:1005A000756D6900636E7400646F666600646F6EDB
:1005B000006E6F746500736D700070720065780076
:1005C0007479706500756E69740074696D6500708A
:1005D000006368006D7367006C656400696E760087
:1005E000696C00667265710066756E63006569000E
:1005F00064657600AD06A706A2069B0695069106E1
:100600008A0683067C0676066E066806600657062E
:100610005006490641063C0637062F0628062006E6
:100620006C65646C756D69007465737463680065EE
:100630006469746465760073617665006C6F6164EB
:10064000006C6564696E666F006C65646D7367004D
:100650006C6564636C72006C6564626C696E6B00DF
:100660006B6579696E666F0061626F7574006465B1
:1006700076696E666F0064656C63680064656C64BF
:10068000657600656469746368006368696E666FA7
:100690000062757A00616464636800616464646523
:1006A0007600657869740073657475700068656CB0
:1006B00070004B657920636F6465203D20253032E2
:1006C0006420414443204368616E6E656C203D2088
:1006D0002564094144432056616C7565203D202501
:1006E0006400546573742077617320696E74657259
:1006F0007275707465640028707265737320616E22
:1007000079206B657920746F2073746F7020746525
:1007100073742900467265712028485A29203D20AB
:10072000256C642043682564203D09005B50432507
:10073000645D09005B504425645D09002F636820F7
:10074000256409002F64657620256409002F257330
:1007500020256409002F257320257309000D0A0048
:100760002E2E2E00576169740030322E30342E3216
:10077000303139007665722E20302E3100207368BA
:1007800044524F0030322E30342E32303139007620
:1007900065722E20302E310020736844524F005372
:1007A00043416E202020004164632E2564202020D8
:1007B00020004164632E25643D2530336400576179
:1007C000697400446F75626C652E25303264005088
:1007D0007265737320253032640045786974007E39
:1007E000306D79335B5F707F7B771F0D3D4F470026
:1007F00000000000000000000000000000000000F9
:100800000000000000000000000000800180007E69
:10081000306D79335B5F707F7B0000000900E5007D
:10082000771F4E3D4F4700170600000E66151D67E7
:1008300000055B0F1C3E1E37000000000000080092
:10084000771F0D3D4F4700170600000E72151D67FC
:1008500000055B0F1C3E3C370000000000000091CB
:10086000088E088A088608830880087E087B087737
:100870000873086D687A006B687A00687A00730004
:100880006D73007573006465670072706D006D6D47
:1008900000696E63680011241FBECFEFD8E0DEBF91
:1008A000CDBF11E0A0E0B1E0E0EBF5E602C00590BD
:1008B0000D92A039B107D9F725E0A0E9B1E001C058
:1008C0001D92A538B207E1F70E943C210C94D63264
:1008D0000C94000060939E0140939F012093A2011D
:1008E00010929B010E94392381E080939A01089520
:1008F00010929A01E1E8F0E080818E7F8083E0E849
:10090000F0E080818F7B80830895219A10929A0174
:1009100008954F925F926F927F928F929F92AF92C3
:10092000BF92CF92DF92EF92FF920F931F93CF93DC
:10093000DF93C82F562E472E142F052F622E0E94AC
:100940003C2C882E792ECC2309F4ACC08CEF8C0F74
:10095000823008F43DC04F925F9281E394E09F9310
:100960008F937F928F920E94992FEC2FF0E0EE0FE1
:10097000FF1FE15AFC4F859194919F938F937F9233
:100980008F920E94992F8DB79EB70A960FB6F89452
:100990009EBF0FBE8DBF80EF90E09F938F937F929D
:1009A0008F920E94992F0F900F900F900F90DF91D0
:1009B000CF911F910F91FF90EF90DF90CF90BF905C
:1009C000AF909F908F907F906F905F904F90089521
:1009D000662009F3C12FD02F912C90EFA92E90E023
:1009E000B92E01E314E022ECC22E23E0D22E36EE23
:1009F000E32E33E0F32E07C08730A9F180E0939413
:100A00002B96691469F18A858F708630A9F74F9209
:100A10005F921F930F937F928F920E94992F8E81E6
:100A20008F938D818F93FF92EF927F928F920E948E
:100A3000992F8DB79EB70C960FB6F8949EBF0FBE38
:100A40008DBFBF92AF927F928F920E94992F0F908D
:100A50000F900F900F9081E093942B966910D3CF55
:100A60008111A5CF98CF4F925F921F930F937F92E2
:100A70008F920E94992F88858F938F818F938E817B
:100A80008F938D818F93DF92CF927F928F920E946E
:100A9000992F8DB79EB70E960FB6F8949EBF0FBED6
:100AA0008DBFCFCF4F925F928EE394E09F938F9351
:100AB0007F928F920E94992F0F900F900F900F901E
:100AC0000F900F9068CFCF92DF92EF92FF920F932B
:100AD0001F93CF93DF938C01DC0119961C92199719
:100AE0001596CD90DC9016979DE0E92E92E0F92EB8
:100AF000C0E0D0E0F70165917491C6010E94772FA4
:100B0000892B81F02196B3E0EB0EF11CC531D105A4
:100B100089F7DF91CF911F910F91FF90EF90DF90B8
:100B2000CF900895FE01EE0FFF1FEC0FFD1FE15F58
:100B3000FD4FE491D8011996EC93EBCFAF92BF92A1
:100B4000CF92DF92EF92FF920F931F93CF93DF9399
:100B50001F92CDB7DEB76C01FC018285807FA82E85
:100B600082871982B18403EF10E0E12CF12C80E040
:100B700009C0FFEFEF1AFF0A0B5F1F4F9CE1E91658
:100B8000F10489F0F8013496E491EB11F2CFF80109
:100B900065917491F601878190850E94772F892B4A
:100BA000A1F081E0E6CF811122C0F60182858F702D
:100BB00059F10F90DF91CF911F910F91FF90EF901E
:100BC000DF90CF90BF90AF9008958A2D8260F6019C
:100BD0008287F701EE0FFF1FEE0FFF1FEE0DFF1DC7
:100BE000EB50FF4F85919491F60191838083F6013C
:100BF0008285982F9F709230E1F2807F8760828794
:100C0000F60182858F70A9F6878190850E94102E4B
:100C1000882331F0F6018285807F81608287C9CF89
:100C2000B601F601878190850E94212E882331F03C
:100C3000F6018285807F84608287BBCFB601F60192
:100C4000878190850E94512E882331F0F60182859C
:100C5000807F85608287ADCF9E012F5F3F4FA601C9
:100C60004C5F5F4FB601F601878190850E945D2D34
:100C7000811106C0F6018285807F8760828799CFC7
:100C800089818295807F8360F601828792CF4F921F
:100C90005F927F929F92AF92BF92CF92DF92EF923C
:100CA000FF920F931F93CF93DF93EC01962E6A016F
:100CB00059012801FA01118210828FEFF901808316
:100CC000F7011082662381F0F801C801C7961682E9
:100CD000158210861782108211821282138214826A
:100CE0003B968E179F0799F788818823C1F100E012
:100CF00010E020E2722E9BEF910F923008F466C054
:100D000090E00E946F2F8883803208F47882812FD0
:100D100090E08730910508F050C0FC01EC5CFF4F7B
:100D200088810C94082F803209F447C0F701808134
:100D3000F2019BE0899FE00DF11D11243B97D087C4
:100D4000C7838881823209F47BC091E0873209F041
:100D500090E0092F16E0219688818111CCCFF60111
:100D6000C080D180C114D104A9F0C1EAD2E0912C95
:100D7000FE0165917491C6010E94772F892B09F4B9
:100D800062C093942296F6E19F12F2CFF501808122
:100D900087FF5BC086E0DF91CF911F910F91FF909D
:100DA000EF90DF90CF90BF90AF909F907F905F903B
:100DB0004F900895803209F43FC02196888188239E
:100DC00071F29BEF910F923008F09ACF88819CCFFF
:100DD000803299F3F7018081853009F464C08F5F18
:100DE0008083F2019BE0899FE00DF11D11243B9768
:100DF000D683C58314E0E1CF0023C9F0823211F01D
:100E00008732D9F600E0D9CF8032B9F6188299201E
:100E100009F4A5CF12E0D1CF803279F2F601D18367
:100E2000C08311E0CACF8F3241F613E0C6CF8032C3
:100E300021F6188212E0C1CF188200E015E0BDCF84
:100E400001E016E088CFF5019082F70180818823C8
:100E500061F1D12CC12C0BC08A85807F86608A8786
:100E600094E0C92ED394F7019081D916D0F4E20111
:100E7000FBE0DF9EC00DD11D1124CE010E94630551
:100E80009985992349F3CE010E949E058A858F702A
:100E9000873041F785E0C82ED394F7019081D916A9
:100EA00030F38C2D78CF89E076CF80E074CFCF926D
:100EB000DF92EF92FF920F931F93CF93DF9300D0B7
:100EC00000D0CDB7DEB70E943C2CD82EC92E1A8296
:100ED00019828FEF8C831B828091150483FF04C0DD
:100EE0008091150485FF94C0EFEEF3E0938180912B
:100EF000150483FF04C08091150485FF86C0EFEEC2
:100F0000F3E08481981741F18091150483FD6FC04F
:100F1000EFEEF3E0408151818091150483FD60C0C4
:100F2000EFEEF3E0848190E02091150423FD51C0A1
:100F3000EFEEF3E02281E22FF0E03197E823F9238E
:100F4000E40FF51F3197FA83E98380818D3089F0B2
:100F50008A3079F0882369F00F900F900F900F90EE
:100F6000DF91CF911F910F91FF90EF90DF90CF9085
:100F700008958091150483FD41C0EFEEF3E0848174
:100F800090E02091150423FF04C02091150425FF53
:100F90005CC1EFEEF3E02381821B910920911504DF
:100FA00023FF04C02091150425FF4CC1EFEEF3E0B0
:100FB000228130E08217930709F45FC08091150405
:100FC00083FF29C08091150485FD25C0E9EAF1E081
:100FD00024C02091150425FDABCFE9EAF1E0AACFAA
:100FE0008091150485FD9CCFE9EAF1E09BCF8091CB
:100FF000150485FD8DCFE9EAF1E08CCF80911504D1
:1010000085FDBBCFE9EAF1E0BACFE9EAF1E079CFBB
:10101000E9EAF1E06BCFEFEEF3E04081518180919E
:10102000150483FF07C08091150485FD03C0E9EA1C
:10103000F1E002C0EFEEF3E0848190E0209115042E
:1010400023FF07C02091150425FD03C0E9EAF1E064
:1010500002C0EFEEF3E02281E22FF0E03197E823C7
:10106000F923E40FF51F10828091150483FDDDC084
:10107000EFEEF3E084818F5F84838091150483FF1A
:1010800004C08091150485FFDAC0EFEEF3E04081E3
:1010900051818091150483FF04C08091150485FF60
:1010A000DAC0EFEEF3E0238130E08091150483FF96
:1010B00004C08091150485FFCBC0EFEEF3E0928170
:1010C000892F90E00197822393236D2D7C2D840F2F
:1010D000951F0E94F02F80EF90E09F938F93CF9207
:1010E000DF920E94992F6091150463FB662760F9D7
:1010F000809115040F900F900F900F9083FF04C004
:101100008091150485FFADC0EFEEF3E00190F08112
:10111000E02D8091150483FF04C08091150485FFA4
:101120009DC0AFEEB3E013962C9130E08091150492
:1011300083FF04C08091150485FF7EC0AFEEB3E04D
:1011400012968C9190E00197822393239E012D5F4C
:101150003F4F79010EEA13E02F5F3F4FAE014F5F23
:101160005F4F8E0F9F1F0E9447069091150493FDBD
:101170002EC09C8192305CF186E069817A812B815E
:101180004EEA53E00E9489048091150483FF42C017
:101190008FE593E09F938F93CF92DF920E94992FD8
:1011A0000F900F900F900F908091150483FD36C023
:1011B000EFEEF3E013828091150483FF04C0809169
:1011C000150485FF51C0EFEEF3E01482C5CE811106
:1011D000D4CF2B81EC81E7FD12C0EE0FFF0BEC5357
:1011E000FF4F459154914115510549F0622F8EEA08
:1011F00093E0FA0109958F3F49F02B8101C086E009
:1012000069817A814EEA53E00E9489048091150435
:1012100083FDBECF8091150483FFCACF8091150452
:1012200085FDC6CFE9EAF1E0C5CF8091150485FDC3
:101230001FCFE9EAF1E01ECFA9EAB1E081CFE9EAE8
:10124000F1E025CFE9EAF1E0B3CEE9EAF1E0A3CE9F
:10125000E9EAF1E034CFE9EAF1E025CFA9EAB1E02B
:1012600062CFE9EAF1E052CFE9EAF1E0148274CE0C
:10127000DB01E2E6F5E020E030E09491981739F0E8
:101280002F5F3F4F339625313105B9F70895F901A6
:10129000EE0FFF1FE20FF31FE05AFA4F65917491B2
:1012A0008D919C910C94802F28E434E0A0E0B0E074
:1012B00006C011962B5F3F4FAC31B105C9F0F90163
:1012C0003296E491E813F5CFF90194919613F1CF9A
:1012D000FD01EE0FFF1FEE0FFF1FEA0FFB1FEA5B82
:1012E000FB4F65917491FA01808191810C94802F5C
:1012F00008959F92AF92BF92CF92DF92EF92FF92AA
:101300000F931F93CF93DF93CDB7DEB768970FB6D8
:10131000F894DEBF0FBECDBF182FD42EB52EA62E4B
:10132000972EC22ECE010B96988F8F8B0A979E8B8D
:101330008D8B0E943C2CF82EE92EBE01695E7F4FFA
:10134000812F0E943809CC20E1F1AE014B5E5F4F46
:101350006D2D812F0E9454098E898F938D898F93D3
:10136000888D8F938F898F9385E597E09F938F93D7
:10137000EF92FF920E94992F0FB6F894DEBF0FBE36
:10138000CDBF002361F08DE597E09F938F93EF929F
:10139000FF920E94992F0F900F900F900F906896D8
:1013A0000FB6F894DEBF0FBECDBFDF91CF911F9176
:1013B0000F91FF90EF90DF90CF90BF90AF909F90F4
:1013C00008959F92AF92BF92DF92888D8F938F89FD
:1013D0008F938DE497E09F938F93EF92FF920E94FB
:1013E000992F0FB6F894DEBF0FBECDBFCACF809144
:1013F000150483FD14C08091150488608093150442
:1014000083E00E94CF2027EA36E03F932F939F93FB
:101410008F930E94992F0F900F900F900F9080E064
:101420000895E5E1F4E08081877F808380E008957E
:10143000EF92FF920F931F93CF93DF930E943C2C68
:101440007C01C6EFD5E00DE517E0FE018591949192
:101450009F938F93FF92EF920E94992F1F930F9368
:10146000FF92EF920E94992F22968DB79EB7089611
:101470000FB6F8949EBF0FBE8DBF96E0C032D9075D
:1014800021F780E0DF91CF911F910F91FF90EF90B6
:101490000895CF93DF930E943C2C2DE737E03F93D4
:1014A0002F939F938F930E94992F0E943C2CCDE500
:1014B000D7E0DF93CF939F938F930E94992F0E9441
:1014C0003C2C24E737E03F932F939F938F930E9408
:1014D000992F0E943C2CDF93CF939F938F930E9470
:1014E000992F0E943C2C29E637E03F932F939F933E
:1014F0008F930E94992F0E943C2CDF93CF939F9350
:101500008F930E94992F8DB79EB748960FB6F89487
:101510009EBF0FBE8DBF80E0DF91CF910895CF9227
:10152000DF92EF92FF920F931F93CF93DF930E946E
:101530003C2CD82EC92E80911004882309F448C071
:1015400010E084E4E82E87E0F82EC0910E04D091DC
:101550000F0481E1189FC00DD11D11241F921F930C
:10156000FF92EF92CF92DF920E94992F4E854F709B
:1015700050E060E070E000E021E08AE00E9479093C
:101580004F854F7050E060E070E021E083E00E9402
:1015900079094A8550E060E070E020E087E00E9431
:1015A00079094F8542954F7050E060E070E001E0AE
:1015B00021E08CE00E9479091F5F809110040F9058
:1015C0000F900F900F900F900F90181708F4BDCF49
:1015D00080E0DF91CF911F910F91FF90EF90DF900E
:1015E000CF900895CF92DF92EF92FF920F931F93C7
:1015F000CF93DF930E943C2C6C01E12CF12C02EB89
:1016000016E0CDE5D7E0F701EE0FFF1FDF01AA5E80
:10161000BA4F9C91E95EFA4F8081837020812695B4
:1016200026951F929F9390E006969F938F931F920B
:101630002F931F930F93DF92CF920E94992FDF93E6
:10164000CF93DF92CF920E94992F8FEFE81AF80A7A
:101650008DB79EB70E960FB6F8949EBF0FBE8DBF86
:1016600098E1E916F10479F680E0DF91CF911F91BE
:101670000F91FF90EF90DF90CF9008956F927F923F
:101680008F929F92AF92BF92CF92DF92EF92FF9292
:101690000F931F93CF93DF930E943C2C3C01C0E03B
:1016A000D0E08CE2882E87E0982E94E3A92E97E074
:1016B000B92E2CE3C22E27E0D22E66C002969F934D
:1016C0008F93BF92AF927F926F920E94992F0F904B
:1016D0000F900F900F900F900F90DF93CF93DF92AA
:1016E000CF927F926F920E94992FFE01E550FC4F9E
:1016F0007F0140814F7050E060E070E000E021E049
:1017000086E00E947909F701408146FB442740F9B1
:1017100050E060E070E020E082E00E947909F7018B
:1017200040814295437050E060E070E021E084E049
:101730000E947909812F0E949E19182F082F001FDF
:101740000027001FF701408147FB442740F950E084
:1017500060E070E020E085E00E9479090F900F9032
:101760000F900F900F900F9017FD0AC0412F110F8F
:10177000550B660B770B01E020E081E00E947909B0
:101780002196CC30D105A9F01C2FCE01C63008F42B
:1017900095CF06979F938F939F928F927F926F9290
:1017A0000E94992F0F900F900F900F900F900F9015
:1017B00094CF80E0DF91CF911F910F91FF90EF9038
:1017C000DF90CF90BF90AF909F908F907F906F9061
:1017D0000895CF92DF92EF92FF92CF93DF93EC01C7
:1017E000662399F089858930C1F09E01255F3F4FBE
:1017F00090E008C0D901255F3F4FF9013297408141
:10180000493061F09F5F6913F5CF87E0DF91CF9199
:10181000FF90EF90DF90CF900895DE011097A9F32D
:101820001A969C911A97292F2F70233061F0907F80
:1018300097601A969C9385E0DF91CF91FF90EF908F
:10184000DF90CF900895CD90DD90ED90FC901397B0
:101850002CE0C216D104E104F10448F7863009F403
:1018600079C09E01255F3F4F90E007C0F901255FD9
:101870003F4F4185463009F453C09F5F6913F6CF4F
:10188000823009F471C09E01255F3F4F90E007C090
:10189000F901255F3F4F4185423009F44FC09F5FFA
:1018A0006913F6CF843009F45AC09E01255F3F4F7B
:1018B00090E006C0F901255F3F4F4185443009F1B2
:1018C0009F5F6913F7CF853079F02B9680E007C0D2
:1018D000DE012B96FE0132979081953031F08F5FBB
:1018E0006813F6CF80E092CFDE011097D9F3F601AE
:1018F000E550FC4F80819C9190FB87F9808380E0CC
:1019000085CF309701F3D601A550BC4F90819370DD
:10191000292F2295207F9C919F7C922B9C93D3CF43
:10192000309709F4ADCFD601A550BC4F9081292F37
:101930002F709C91907F922B9C93A2CF309709F4AB
:10194000B1CFD601A550BC4F9C91208120FB96F9C8
:101950009C93A8CF209709F496CFFE01E4CF20975F
:1019600009F4B3CFFE01CFCF209709F49ECFFE013B
:10197000E8CF80E00895CF92DF92EF92FF920F932D
:101980001F93CF93DF9387FDAFC0C0910E04D0911A
:101990000F04F1E18F02C00DD11D1124442309F47D
:1019A00049C0FB015185533009F4E7C09B01255F15
:1019B0003F4F80E007C0F901255F3F4F918593308D
:1019C00009F47FC08F5F8417B0F3573009F4B2C0B9
:1019D0009B01255F3F4F80E007C0F901255F3F4F26
:1019E0009185973009F47AC08F5F8417B0F35C302B
:1019F00009F4BDC09B01255F3F4F80E007C0F9019E
:101A0000255F3F4F91859C3009F44DC08F5F84174F
:101A1000B0F35A30C9F0655F7F4F80E008C0DB014A
:101A2000655F7F4FFB01329790819A3071F08F5F35
:101A30008417A8F380E0DF91CF911F910F91FF9061
:101A4000EF90DF90CF900895DB01109799F38D917F
:101A50009C912E85422F4F7050E04817590751F343
:101A60008F70207F282B2E87288539858E01085F6F
:101A70001F4F232B49F0A80160E081E00E9452141F
:101A8000198618868E858F706F856F700E949023DF
:101A9000A801692F81E00E94521488859985892BBD
:101AA00049F688E0C8CF309709F4B3CF8081982FEA
:101AB0009295907F8F858F70892B8F87FB01518541
:101AC000A8CF309709F481CF8081982F9F708F85A0
:101AD000807F892B8F87FB01518577CF309709F461
:101AE00086CF80818A8783CF442391F0FB01518583
:101AF000513081F0CB010B9620E007C0DC010B9642
:101B0000FC0132973081313031F02F5F4213F6CF34
:101B100087E091CFDB011097D9F31A968C911A9731
:101B2000982F9F70933061F0807F87601A968C9316
:101B300085E081CF6115710509F45CCFFB01D1CF40
:101B4000CD90DD90ED90FC9013970091100410E083
:101B500001501109012E000C220B330B0C151D0531
:101B60002E053F0584F41A968C911A97DDCF6115E6
:101B7000710509F450CFFB0199CF6115710509F486
:101B800027CFFB01A1CFF7FCEECFC0910E04D0917F
:101B90000F0421E12C9DC0012D9D900D1124C80F33
:101BA000D91F01CFFF920F931F93CF93DF9300D0E4
:101BB000CDB7DEB78C01F62E1A82198280911004FF
:101BC00061E1689F600D1124AE014F5F5F4F80E0BF
:101BD0000E94521489819A81009709F441C0909320
:101BE0000F0480930E04809110048F5F8093100483
:101BF000E0910E04F0910F048091100491E1899F0F
:101C0000E00DF11D1124719711861086E0910E04EC
:101C1000F0910F048091100491E1899FE00DF11D76
:101C20001124719716821582E0910E04F0910F0431
:101C30008091100491E1899FE00DF11D11247197AD
:101C40001782809110044F2DB80181500E94BB0C67
:101C50000F900F90DF91CF911F910F91FF900895FA
:101C600088E00F900F90DF91CF911F910F91FF901F
:101C70000895462FBC018FEF0C94BB0CCF92DF92DE
:101C8000EF92FF920F931F93CF93DF93CDB7DEB701
:101C900061970FB6F894DEBF0FBECDBF662389F003
:101CA000FC0121852130E9F00B9620E007C0DC0122
:101CB0000B96FC01329730813130A1F02F5F621317
:101CC000F6CF87E061960FB6F894DEBF0FBECDBFAA
:101CD000DF91CF911F910F91FF90EF90DF90CF9008
:101CE0000895DC01109769F31A968C911A97982F32
:101CF0009F70933031F0807F87601A968C9385E0D7
:101D0000E1CFCD90DD90ED90FC90139740911004C1
:101D100050E041505109052E000C660B770B4C1515
:101D20005D056E057F0524F41A968C911A97E3CF12
:101D3000F7FCFACF80910E0490910F04FC2D21E165
:101D4000F20280011124800F911F0E94631580917F
:101D500010040C2C000CDD0890E00197C816D90681
:101D6000B9F1E0910E04F0910F04E00FF11F81E151
:101D7000DE01119601900D928A95E1F7A0910E0473
:101D8000B0910F04E0910E04F0910F0480911004C3
:101D9000A00FB11F31E1839FE00DF11D1124719758
:101DA00081E101900D928A95E1F7A0910E04B09126
:101DB0000F048091100491E1899FA00DB11D1124A1
:101DC000519781E1FE01319601900D928A95E1F7DC
:101DD000809110048150809310048091100461E17F
:101DE000869F602D11244EE054E080E00E94521442
:101DF00080911004811105C010920F0410920E04FE
:101E000061CF80E05FCFCF92DF92EF92FF920F938E
:101E10001F93CF93DF93EC01662399F0898581307E
:101E2000D1F09E01255F3F4F90E008C0D901255FAA
:101E30003F4FF90132974081413071F09F5F691344
:101E4000F5CF87E0DF91CF911F910F91FF90EF9039
:101E5000DF90CF900895DE01109799F31A969C9128
:101E60001A97292F2F70233031F0907F97601A96A0
:101E70009C9385E0E7CFCD90DD90ED90FC9013979B
:101E80000091100410E001501109012E000C220BEA
:101E9000330B0C151D052E053F054CF41A968C913D
:101EA0001A97807F87601A968C9385E0CBCFF7FCDA
:101EB000F5CF00910E0410910F04893079F0CE0116
:101EC0000B9620E007C0EC010B96FC0132973081A5
:101ED000393021F02F5F6213F6CFB3CF209709F48A
:101EE000B0CF2A85822F8F70833031F0822F807F90
:101EF00087608A8785E0A6CF88819981AA81BB8186
:101F00008C309105A105B10588F70E949E1987FDC7
:101F100002C081E097CF21E12C9DC0012D9D900D45
:101F20001124080F191FA8014B5F5F4FF80167814B
:101F30006F5F82E00E945214F801858196810097BC
:101F400059F027812F5F2783820F911DFC01319764
:101F50008881808380E076CF88E074CF8F929F92D3
:101F6000AF92BF92CF92DF92EF92FF920F931F93A7
:101F7000CF93DF93EC01662399F089858130F1F0EE
:101F80009E01255F3F4F90E008C0D901255F3F4F7C
:101F9000F90132974081413091F09F5F6913F5CF8D
:101FA00087E0DF91CF911F910F91FF90EF90DF902D
:101FB000CF90BF90AF909F908F900895DE011097C3
:101FC00079F31A969C911A97292F2F70233031F0AC
:101FD000907F97601A969C9385E0E3CFCD90DD903B
:101FE000ED90FC9013970091100410E0015011093E
:101FF000012E000C220B330B0C151D052E053F0581
:102000004CF41A968C911A97807F87601A968C935D
:1020100085E0C7CFF7FCF5CF40910E0450910F0437
:10202000893079F0CE010B9620E007C0EC010B96C9
:10203000FC0132973081393021F02F5F6213F6CFE7
:10204000AFCF209709F4ACCF8A85982F9F7093303B
:1020500029F0807F87608A8785E0A3CF8880998078
:10206000AA80BB809CE089169104A104B10488F782
:1020700081E18C9DE0018D9DD00D1124C40FD51FF1
:102080008F81882309F1ED81FE814081042F10E0CA
:1020900020E030E080169106A206B30629F1DF01A8
:1020A000119621E030E00EC04D91B9016F5F7F4F76
:1020B000C42ED12CE12CF12C8C149D04AE04BF0451
:1020C000A9F09B01281780F36FEF680FAE014B5FFB
:1020D0005F4F82E00E9452148F8181508F83811163
:1020E00013C01E821D825DCF20E030E090E001979A
:1020F000E80FF91F508140838D819E81FC01E20F22
:10210000F31F50838F81E0CF80E04BCF3F924F92FF
:102110005F926F927F928F929F92AF92BF92CF9277
:10212000DF92EF92FF920F931F93CF93DF93DC0127
:102130006623A9F019965C911997593019F19C0101
:10214000255F3F4F90E008C0E901255F3F4FF9014F
:10215000329780818930B9F09F5F6913F5CF87E0AE
:10216000DF91CF911F910F91FF90EF90DF90CF9073
:10217000BF90AF909F908F907F906F905F904F90A7
:102180003F900895EC01209751F38A85982F9F7016
:10219000953029F0807F87608A8785E0E1CF5F30C6
:1021A00079F0CD010B9620E007C07C010B96FC0175
:1021B000329730813F3029F02F5F6213F6CFCFCFB7
:1021C0007D01E114F10459F2162F6D01F7016081D0
:1021D0007181828193810E947422892B09F4CBC181
:1021E000F70180809180A280B380F60181858031E3
:1021F00009F4C3C1C6010B9620E008C0FC010B9690
:10220000DC0112973C91303109F4B8C12F5F1213F1
:10221000F5CF1FEFC880D980F8940E94F01786E1AF
:1022200094E090930A0480930904909308048093A7
:1022300007049093500580934F051092A3011092CC
:10224000EE03E12CF12CC0E0D0E007C0FFEFEF1A65
:10225000FF0A2CE0E216F104F9F00E2DC6010E2C57
:1022600002C0969587950A94E2F780FFEFCFF701B9
:10227000E550FC4F808186FFE9CF8E2D0E94141817
:10228000063008F008C1C3EAD1E0FFEFEF1AFF0AF9
:102290002CE0E216F10409F7E091F403F091F50364
:1022A000CF019E5F1182108232968E179F07D1F761
:1022B00080E090E0E0914F05F0915005E80FF91FA4
:1022C00010820196811531E09307A1F760E070E07C
:1022D000CB010E9415238091150480628093150420
:1022E0008091150480618093150481E080935205EC
:1022F000C4010E94542378940E943C2C24E637E0C9
:102300003F932F939F938F930E94992F0E943C2C71
:1023100020E637E03F932F939F938F930E94992F4E
:102320000E943C2C27EF36E03F932F939F938F938F
:102330000E94992F0E943C2C2DE537E03F932F936C
:102340009F938F930E94992F8DB79EB740960FB69B
:10235000F8949EBF0FBE8DBF04C080914D058111C2
:1023600017C188818117C8F3C0E0F8940E94F01764
:102370001092520568EE73E080E090E00E94152311
:102380007894C1118FC0E12CF12CC1E3D1E00AC0D7
:10239000D694C7943FEFE31AF30A4CE0E416F10435
:1023A00009F48EC01E2DC0FEF3CF0E943C2C082FD6
:1023B000792EFF92EF9260E472E48FE090E0A50145
:1023C00094010E94C72E5F934F933F932F93E4E1B4
:1023D000F7E0FF93EF937F920F930E94992F8DB7B1
:1023E0009EB70A960FB6F8949EBF0FBE8DBF270109
:1023F000163008F053C092E0490E511C612C712C2C
:10240000E091F403F091F503C301880F991FE80FE1
:10241000F91F008111810115110511F401E010E08F
:10242000E0914F05F0915005E60DF71D808190E099
:10243000042C02C0959587950A94E2F780FB5524F9
:1024400050F8312C0E943C2C3F925F92DF93CF9347
:102450009F938F930E94872F015011090F900F9027
:102460000F900F900F900F9069F73FEF631A730A68
:10247000611441E0740621F60E943C2CEDE5F7E082
:10248000FF93EF939F938F930E94992F0F900F903C
:102490000F900F907DCFCEEED3E0D8CEE6E04E1A6F
:1024A0005108ACCF0E943C2C22EE36E03F932F9394
:1024B0009F938F930E94992F0F900F900F900F90E2
:1024C0000E943C2C2DE537E03F932F939F938F93F1
:1024D0000E94992F809115048F7D809315040E948E
:1024E0009917809115040F900F900F900F9083FF14
:1024F0002AC08091150485FD26C0E6EFF3E0138223
:102500008091150483FF26C08091150485FD22C0AB
:10251000E6EFF3E014828091150483FF22C08091DE
:10252000150485FD1EC0E9EAF1E0138280911504CF
:1025300083FF1EC08091150485FD1AC0E9EAF1E011
:1025400014828FEF0DCEE4EAF1E01382809115043E
:1025500083FDDACFE4EAF1E014828091150483FD73
:10256000DECFEFEEF3E013828091150483FDE2CF1E
:10257000EFEEF3E0E5CF85E0F3CDF601309709F417
:1025800048CE82858F70833009F043CE108142CED1
:10259000C1E0EBCE0F931F93CF93DF93EC01662343
:1025A00069F159855131B1F09C01255F3F4F90E0B1
:1025B00008C0D901255F3F4FF90132974081413171
:1025C00051F09F5F6913F5CF87E0DF91CF911F91A5
:1025D0000F910895DC011097B9F31A969C911A9700
:1025E000892F8F70833091F0907F97601A969C931B
:1025F00085E0DF91CF911F910F9108950E9478049B
:1026000080E0DF91CF911F910F910895523109F42D
:1026100058C09E01255F3F4F80E008C08901255FBB
:102620003F4FF90132979081923171F18F5F6813BA
:10263000F5CF7FEF533109F454C0CE010B9620E063
:1026400007C08C010B96FC0132973081333169F160
:102650002F5F6213F6CF40E05431B9F1CE010B96F3
:1026600020E007C0EC010B96FC0132973081343139
:1026700061F12F5F6213F6CF2FEF672F8D919C9141
:102680000E946A0480E0A1CF0115110591F2F801C2
:102690008285982F9F70933029F0807F8760828792
:1026A00085E093CFF8017081C5CF0115110599F22E
:1026B000F8018285982F9F70933079F7F801408157
:1026C000CBCF2097A1F08E01E2CF2097A9F28A8587
:1026D000982F9F70933049F0807F87608A8785E0CC
:1026E00074CF209731F08E01E3CF2881C6CF7FEFE2
:1026F000A4CF40E0B3CF662389F0FC0121852730C9
:1027000079F00B9620E007C0DC010B96FC013297B4
:102710003081373031F02F5F6213F6CF87E00895B4
:10272000DC011097D9F38C910E94A32080E00895DA
:10273000662389F0FC012185273079F00B9620E093
:1027400007C0DC010B96FC0132973081373031F045
:102750002F5F6213F6CF87E00895DC011097D9F35D
:102760008C910E940F2080E008951F93CF93DF93F8
:10277000EC01662399F08985873009F442C09E01F7
:10278000255F3F4FA90190E006C0FA01455F5F4F0A
:102790007185773041F09F5F6913F7CF87E0DF9154
:1027A000CF911F9108953097C9F3883071F0C90116
:1027B00020E007C0EC010B96DC0112973C91383009
:1027C00021F02F5F6213F6CFE9CF209739F31881FC
:1027D000C98180810E94CF20CF931F9324E231E0F2
:1027E0003F932F939F938F930E94872F0F900F906B
:1027F0000F900F900F900F9080E0DF91CF911F917D
:102800000895209759F2FE019E01255F3F4FCFCFDB
:10281000CF93DF93EC01662391F08985873079F1BE
:102820009E01255F3F4FA90190E006C0FA01455F78
:102830005F4F7185773039F09F5F6913F7CF87E07D
:10284000DF91CF9108953097D1F3853171F0C901AF
:1028500020E007C0EC010B96DC0112973C9135316A
:1028600021F02F5F6213F6CFEACF209741F3688102
:1028700080810E94ED1F80E0DF91CF910895209725
:10288000F1F2FE019E01255F3F4FE1CF0E949917B3
:10289000811102C088E0089580E008950E94C41765
:1028A00080E00895DF92EF92FF920F931F93CF93F2
:1028B000DF93813009F482C008F472C0823009F0DD
:1028C00067C0A0E0B5E0C2E1D5E0FD01E12C20E069
:1028D00030E000E010E080819181009709F49AC017
:1028E0007281370F4817590709F4C2C0339685E043
:1028F000E231F80781F7862F90E0830F911D0D9745
:102900000CF051C0E7FCC7C0EE20D9F08FEF830F69
:102910003FEF320F282FDD24DA94231791F00E2C8D
:10292000000CFF08822F90E0FC01EC50FB4F7081FF
:102930008E0D9F1DFC01EC50FB4F70832D0D32134B
:10294000F1CFF8016283611198C0F8011182108201
:10295000E0E0F5E080819181892B09F492C0339603
:1029600025E0EF30F207B1F720E0ED91FC911197EF
:10297000309751F0822F90E08C509B4F9183808351
:1029800012968C911297280F1396CA17DB0769F7D6
:10299000DF91CF911F910F91FF90EF90DF900895FD
:1029A000673608F456C0DA011D921C92DF91CF9170
:1029B0001F910F91FF90EF90DF900895DA01611160
:1029C0002FC02D913C912115310511F32C57344026
:1029D000ADECBCEC0E940E2F9C01329522952F701D
:1029E00023273F70232781E090E001C0880F2A95BC
:1029F000EAF7809590911305892380931305FA01D6
:102A000011821082DF91CF911F910F91FF90EF9073
:102A1000DF9008950115110509F068CF8F0166CF89
:102A20008D919C91892B09F0B3CF6091130570E0D3
:102A300080E090E0E82F9B01082E02C03595279595
:102A40000A94E2F720FF2AC001968630910591F79B
:102A50009FCF86E194E0FA01918380836093120511
:102A6000DF91CF911F910F91FF90EF90DF9008952C
:102A7000E62EE71A232F8F0139CFF80151834083C7
:102A800073CF238134814581208331834283148233
:102A90001382158264CFDD24D3943FCFB4E18B9FA2
:102AA000C001112484589B4FDA018D939C9381E0DF
:102AB00090E001C0880FEA95EAF790911305892B01
:102AC0008093130565CFCF93DF93EC01AC014B5F8F
:102AD0005F4F60E082E00E945214288539852115FD
:102AE0003105C9F02C573440ADECBCEC0E940E2FE0
:102AF0009C01329522952F7023273F70232781E078
:102B000090E001C0880F2A95EAF78095909113050F
:102B1000892380931305198618861E821D821F82C1
:102B2000DF91CF910895CF9380911004882389F08D
:102B3000C0E080910E0490910F0421E1C29F800DAE
:102B4000911D11240E946315CF5F80911004C81756
:102B500080F31092120510920F0410920E0410923E
:102B60001004CF910895DF92EF92FF920F931F937D
:102B7000CF93DF93CDB7DEB72A970FB6F894DEBFB9
:102B80000FBECDBF1A8682E691E098878F831986A3
:102B9000809110048111F8C082E691E0E0E0F5E058
:102BA000118210821282339625E0E633F207C1F7D4
:102BB00010921305109212058E01095F1F4F9E019E
:102BC000265F3F4F41E0BE01675F7F4F0E94E619DD
:102BD00061E070E0CE0109960E94A42E8A87EF8101
:102BE000F8853196F887EF83998581E1989F802D4C
:102BF0001124873608F4B5C010920F0410920E0409
:102C000020910E0430910F0481E02115310509F463
:102C1000B9C0232B09F497C090931004992309F4A9
:102C200092C0D12C73C0E0900E04F0900F0481E1AB
:102C3000D89EE00CF11C11248981282F2F70F701F8
:102C40009685907F922B96879A81928782958F7036
:102C50009785907F892B87879B819295907F8F7036
:102C6000892B87878089807F8068808B118610867A
:102C7000168215821782A701485F5F4F6D8181E040
:102C80000E945214F701608571858E01095F1F4F04
:102C90009E01265F3F4F4C818F8198850E94E619E7
:102CA0006C8170E0F701808591850E94A42E8A874F
:102CB0002F8138852F5F3F4F38872F83882309F472
:102CC00041C06E81F7016783A7014B5F5F4F82E0D0
:102CD0000E945214F701658176819E01265F3F4F65
:102CE0004E818F8198850E94E6196E8170E0F70110
:102CF000858196810E94A42E8A87EF81F88531967E
:102D0000F887EF83D3949985D916E8F48E01095F8B
:102D10001F4F9E01265F3F4F46E0BE016F5F7F4F12
:102D2000CF010E94E61966E070E0CE0101960E9494
:102D3000A42E8A872F8138852F5F3F4F38872F83B6
:102D4000811171CF80E02A960FB6F894DEBF0FBED6
:102D5000CDBFDF91CF911F910F91FF90EF90DF904A
:102D6000089526E134E030930F0420930E048093FD
:102D7000120520910E0430910F0481E021153105D8
:102D800009F047CF80E045CF0E9493158F81988549
:102D900005CFAF92BF92DF92EF92FF920F931F93F6
:102DA000CF93DF93CDB7DEB728970FB6F894DEBF89
:102DB0000FBECDBF82E691E098878F8361E070E01F
:102DC00080E194E00E94A42E8E01095F1F4F282FFE
:102DD00041E060E174E08F8198850E94191A8F812B
:102DE0009885019698878F8380911004882309F431
:102DF0006AC0D12CE0900E04F0900F0481E1D89EBF
:102E0000E00CF11C1124F70167856F7086858F70C7
:102E10000E949023F701368522852A832785422F39
:102E20004295407F3F70342B398322952F702B833E
:102E30008C839D8387818E8366E070E0CE0101964E
:102E40000E94A42E8E01095F1F4F282F46E0BE016D
:102E50006F5F7F4F8F8198850E94191A8F819885A7
:102E6000019698878F835701F8E0AF0EB11C6C81F3
:102E700070E0C5010E94A42E282F4C81B5018F81DE
:102E800098850E94191A8F819885019698878F835B
:102E9000F701678170E0858196810E94A42EF70179
:102EA00065817681282F47818F8198850E94191A24
:102EB0008F819885019698878F83D3948091100491
:102EC000D81608F497CF28960FB6F894DEBF0FBE39
:102ED000CDBFDF91CF911F910F91FF90EF90DF90C9
:102EE000BF90AF9008950F931F93CF93DF9300D0BF
:102EF0001F92CDB7DEB71B8289E491E09A83898364
:102F00008E010F5F1F4F9E012D5F3F4F4CE06BEF17
:102F100073E00E94E6196CE070E08BEF93E00E9492
:102F2000A42E0F900F900F90DF91CF911F910F91D2
:102F300008950E947317811102C080E008950C94D7
:102F4000B3150F931F93CF93DF9300D0CDB7DEB7A8
:102F500089E491E09A8389836CE070E08BEF93E0E1
:102F60000E94A42E8E010F5F1F4F282F4CE06BEFA5
:102F700073E089819A810E94191A0F900F90DF9156
:102F8000CF911F910F9108950E94A1170C94C9161B
:102F9000CF9380911004882309F1C0E005C0CF5F72
:102FA00080911004C817D0F4E0910E04F0910F0442
:102FB00081E1C89F90011124E20FF31F90899F7057
:102FC00071F780910E0490910F04820F931F0E945D
:102FD0003426CF5F80911004C81730F3CF91089545
:102FE000CF93DF938CE690E0FC012081EBE0F4E0EE
:102FF0002083CDE6D0E028812183A8E6B0E02C91A3
:103000002283FC01108218821C92DF91CF910895D7
:10301000EBE0F4E0808180936C00818180936D000F
:1030200082818093680008958630A8F440916D00F5
:103030008E5F21E030E0B90102C0660F771F8A95EC
:10304000E2F7CB01842B80936D008091680084604F
:1030500080936800089540916C00865021E030E034
:10306000B90102C0660F771F8A95E2F7CB01842B66
:1030700080936C008091680082608093680008955E
:103080008F929F92BF92CF92DF92EF92FF920F9317
:103090001F93CF93DF9380916C0080930B048091FA
:1030A0006D0080930C048091680080930D04109251
:1030B0006C0010926D0010926800809110048823BB
:1030C00009F451C0B12CC12C01E010E0C0910E04F4
:1030D000D0910F0481E1B89EC00DD11D11248F81C4
:1030E0008823D9F1D12C8889807709F089C08D2C6B
:1030F000912CED81FE81E80DF91DC080EC2CF12CA6
:10310000F701E550FC4F808186FD9DC0F701E55039
:10311000FC4F8081E82FEF708E2F90E08A30910570
:10312000C0F4FC01E55CFF4F0C94082FF5E0FC15A2
:1031300008F4A0C09AB1E2E0EE0EF11C980101C0C3
:10314000220FEA94EAF7822F8095EAE2F0E08923E1
:103150008083D3948F81D81630F2B3948091100479
:10316000B81608F4B3CF80E090E061E070E019C0D9
:103170003AB1AC014E5F5F4FFB0102C0EE0FFF1F83
:103180004A95E2F7AF015E2F409543234AB92BB130
:10319000EBE2F0E0252B208301968C30910509F4B9
:1031A00077C0FC01E550FC4F2081322F3F7011F0B9
:1031B00026FFF2CF8630E0F227B1AC01465051092C
:1031C000FB0102C0EE0FFF1F4A95E2F7AF015E2F31
:1031D0004095422347B928B1E8E2F0E0DBCFE5E0D3
:1031E000EC15E0F19AB1E2E0EE0EF11C802F01C087
:1031F000880FEA94EAF7EAE2F0E0892B8083A9CF0E
:1032000085E08C1580F08AB192E09C0D980101C098
:10321000220F9A95EAF7922F209528232AB98BB18D
:10322000EBE2F0E0EACF87B19AEF9C0D980101C084
:10323000220F9A95EAF7922F2095282327B988B173
:10324000E8E2F0E0DACF8C2D0E9414188D819E8187
:10325000FC01E80DF91DE081F0E059CF97B1F6E0EF
:10326000EF1AF108802F01C0880FEA94EAF7E7E22D
:10327000F0E0C3CF97B186E0E81AF108980101C0E9
:10328000220FEA94EAF7822F8095E7E2F0E05FCF21
:10329000DF91CF911F910F91FF90EF90DF90CF9032
:1032A000BF909F908F900895109211041092100477
:1032B00010920F0410920E0483E080931304109276
:1032C0001404809115048D7F80931504809115045A
:1032D0008B7F8093150480911504877F809315045C
:1032E000809115048F7E80931504809115048F7D45
:1032F00080931504E6E1F4E0119285E0E431F807EB
:10330000D9F70E943129809113040E9466290E94F6
:1033100085040E9499170E94C8170E9440180E94B5
:103320006B1E811103C083E08093110468EE73E08B
:1033300080E090E00E9415230C9471269091100477
:103340009923C9F150E0E0910E04F0910F0491E14E
:10335000599F90011124E20FF31F9781992331F1B6
:10336000E0910E04F0910F04E20FF31F0580F68147
:10337000E02D9081891709F190E00EC0E0910E04D4
:10338000F0910F04E20FF31F0580F681E02DE90FA5
:10339000F11D4081481789F09F5FE0910E04F09184
:1033A0000F04E20FF31F4781941740F35F5F909182
:1033B0001004591740F28FEF0895852F0895F8995A
:1033C000FECF92BD81BDF89A80B508950F931F93EB
:1033D000D901442301F1FB0141509C01240F311D0F
:1033E000A9014F5F5F4FF899FECF92BD81BDF89A5A
:1033F00030B53193019684179507A9F7F899FECF58
:1034000052BD41BDF89A80B58C93F8015183408339
:103410001F910F910895AC01F899F0CFF1CFF99970
:10342000FECFF89492BD81BD60BDFA9AF99A789466
:1034300008950F931F93442329F1FB014150BC01D0
:10344000640F711DAB014F5F5F4F3191F999FECF52
:10345000F89492BD81BD30BDFA9AF99A789401969C
:103460008417950791F7F999FECFF89452BD41BDA5
:1034700020BDFA9AF99A7894F801518340831F91FC
:103480000F910895AC01F999EECFEFCF80FF089529
:1034900083E00E94CF2028E937E03F932F939F934A
:1034A0008F930E94992F82E00E94CF202FE837E06F
:1034B0003F932F939F938F930E94992F81E00E94B7
:1034C000CF2024E837E03F932F939F938F930E9460
:1034D000992F2FEF83ED90E3215080409040E1F74A
:1034E00000C000008DB79EB70C960FB6F8949EBF33
:1034F0000FBE8DBF0C94BB2087FD07C08F73833038
:1035000029F0853049F0813021F0089581E00C9454
:10351000A32082E00C94A32080E00C94A3200F93BE
:103520001F93CF93DF93C0914E05C5FBCC27C0F905
:10353000D091460560E083E00E94C7201F92CF93A0
:103540001F92DF932AE231E03F932F939F938F9353
:103550000E94872F90914E052DB73EB7285F3F4FB1
:103560000FB6F8943EBF0FBE2DBF90FD22C09091C4
:1035700046059923F1F0809146058B30F9F0809152
:10358000460590914E0595FB002700F910E0169531
:10359000102F002717950795802B0E947C1A809189
:1035A0004E058F7D80934E0580914E0581608093FE
:1035B0004E05DF91CF911F910F91089580914E0597
:1035C00085FB992790F981E0892790914E0580FB32
:1035D00095F990934E05E8CFCF93DF9360E082E0BA
:1035E0000E94C7201F9226E02F93C7EAD7E0DF93FF
:1035F000CF939F938F930E94992F60E081E00E9468
:10360000C7201F9227E02F93DF93CF939F938F9331
:103610000E94992F8DB79EB70C960FB6F8949EBF57
:103620000FBE8DBFDF91CF910895CF93DF93E091CF
:1036300094018E2F90E08730910508F08FC0FC0137
:10364000EB5BFF4F0C94082F809148050E94EC1A09
:1036500080914D05811161C182E080939401809138
:1036600047058B3008F47AC083E00E94CF202FE911
:1036700037E03F932F939F938F930E94992FD09180
:103680004705C09148059091480560E082E0891B9C
:103690000E94C7201F92DF932C2F30E02A5F3F4FFC
:1036A0003F932F9322EB37E03F932F939F938F937A
:1036B0000E94992F8DB79EB70C960FB6F8949EBFB7
:1036C0000FBE8DBF20E030E006C02F5F3F4F283196
:1036D000310509F462C1B901660F771FFB01E95E8C
:1036E000FA4F80818695869509F457C18081837051
:1036F0004091480590E050E08417950731F7FB01B1
:10370000EA5EFA4F80814091470590E0841B910961
:1037100097FD75C10397CCF680914705FB01EA5EE2
:10372000FA4F8083FB01E95EFA4FC081C695C695CA
:1037300083E00E94CF201F92CF9323EC37E03F938A
:103740002F939F938F930E94992F85E080939401EC
:103750000F900F900F900F900F900F90DF91CF91DF
:103760000895CC2399F180E090E0C0E0AC014F5F78
:103770005F4FDA01AA0FBB1FFD01E95EFA4F7081AE
:103780007370AA5EBA4F2C91880F991FFC01E95EF5
:10379000FA4F60816370FC01EA5EFA4F808130E08D
:1037A000372B90E0962B8217930758F48D919C91BC
:1037B00011972081318111963C932E9391838083C0
:1037C000C1E0CA014731510589F6CBCF83E00E94A1
:1037D000CF202AED37E03F932F939F938F930E9442
:1037E000992F9FEF23ED80E3915020408040E1F737
:1037F00000C000000E94BB2080914E058B7F80930B
:103800004E0580914E058D7F80934E050F900F9051
:103810000F900F90DF91CF91089580E00E940F20CC
:1038200081E00E940F2082E00E940F2083E00E942E
:103830000F2081E08093930180E090E0FC01EE0F87
:10384000FF1FDF01AA5EBA4F1C92E95EFA4F20818A
:103850002370208320812C7F20830196883191055D
:1038600069F781E080939401DF91CF91089560E042
:1038700083E00E94C7202EEB37E03F932F939F9366
:103880008F930E94992F80914D050F900F900F906C
:103890000F90811163CF82E080939401DF91CF91EB
:1038A0000895C091930160E083E00E94C7201F92B9
:1038B000CF932FEC37E03F932F939F938F930E94EA
:1038C000992F83E080939401109247051092920102
:1038D00081E08093910180919D01809390010F90F0
:1038E0000F900F900F900F900F90DF91CF91089550
:1038F00080914D05811132CF809193018F5F80932C
:103900009301893140F286E08093940127CF809122
:103910004D05882309F4BFCF21CF60E083E00E94EA
:10392000C7202FE937E03F932F939F938F930E94F7
:10393000992F0F900F900F900F908091920181110D
:103940000AC0C0E020E04C2F60E083E00E94142019
:10395000CF5FC830B9F72091900180919D01821707
:1039600008F451C080919D0190E0821B910902975B
:103970000CF475CE409192014F5F40939201473015
:1039800008F04DC02091910160E083E00E94142076
:1039900080919D018093900162CE80919401853049
:1039A00009F4DCCE20E030E005C02F5F3F4F283126
:1039B000310509F1A901440F551FFA01E95EFA4FDB
:1039C00080818695869589F780914805982F937018
:1039D00080818C7F892B808380919301982F990F10
:1039E000990F80818370892B808380914705FA012C
:1039F000EA5EFA4F808384E080939401AFCE919584
:103A00008195910987CE30919D018FEF90E0821BC7
:103A10009109830F911D02970CF0ACCF20CE81E06D
:103A20008093920121E080919101811120E0209307
:103A3000910141E0A9CF8823C9F080917C00877073
:103A400080939701809197018630B1F086E0809352
:103A5000970180917C00876080937C008091970122
:103A600090917C00886F892380937C0080917A00FC
:103A7000806480937A00089587E0E9CF1F920F92C7
:103A80000FB60F9211242F933F934F935F936F9331
:103A90007F938F939F93AF93BF93CF93DF93EF93D6
:103AA000FF93D0917900C0919701C65020914D05A8
:103AB00081E090E00C2E01C0880F0A94EAF7DB3019
:103AC00008F468C0822B80934D058091150485FD14
:103AD00046C040E050E0ED2FF0E006C04F5F5F4F82
:103AE0004831510509F45BC0BA01660F771FDB014D
:103AF000A95EBA4F2C9123708091970130E090E03D
:103B000006972817390751F7DB01AA5EBA4F8C9147
:103B100090E08E1B9F0B97FD1EC00397FCF6FB01E8
:103B2000E95EFA4F90819695969580914E0583FDBA
:103B30003BC080914E05886080934E0580919C012A
:103B400080934B0590939601D093950184E08093E8
:103B50004C0581E005C0919581959109DECF81E00A
:103B60000E941B1D80914E0581FD0E94151BFF9137
:103B7000EF91DF91CF91BF91AF919F918F917F9105
:103B80006F915F914F913F912F910F900FBE0F90CA
:103B90001F9018958095822380934D0596CF90E0D5
:103BA00080914E0583FFC5CF20914B0580919C01EC
:103BB0008217C0F580919C0120914B058150821B9A
:103BC0008B30B0F080914C05815080934C058091F2
:103BD0009C0180934B0580914E0581FD3EC08091F4
:103BE0009601891729F084E080934C059093960103
:103BF00080914C0581111CC080914E0581FF1AC037
:103C0000809195018B3020F080934705C093480543
:103C100084E080934C0580914E05877F80934E050C
:103C200080E09ECF80919C0120914B05821BC8CFE4
:103C300080E096CFD0E0CA5EDA4F9BA980919601D2
:103C4000981731F38BAB882319F380934605809145
:103C50004E058E7F80934E05DBCF80919501D8175E
:103C600039F284E080934C05D0939501C1CF811146
:103C700002C00C94151B80914E05826080934E0506
:103C80001092940108950F931F93CF93DF93C6E191
:103C9000D5E000E011E006511540C8018C0F9D1FD2
:103CA0000E94DF19899385E0C634D807B1F780E315
:103CB00091E00E94DF19C82F60E370E086E195E093
:103CC0000E94A42E91E0C81390E0892FDF91CF913C
:103CD0001F910F9108950E94431EEEE4F5E090813C
:103CE0009D7F908390819B7F908396E09093970136
:103CF000ECE7F0E090E6908390819760908390915C
:103D000097012081986F922390839FE890937A0087
:103D10000895FF920F931F93CF93DF9360E370E0BA
:103D200086E195E00E94A42EF82EC6E1D5E00FEFC3
:103D300010E0065115406991C8018C0F9D1F0E942B
:103D40000F1A85E0C634D807B1F76F2D80E391E0F4
:103D5000DF91CF911F910F91FF900C940F1ACF9389
:103D6000DF93282F220F30E0C82FCC0FCC0FCC0FC1
:103D7000D0E0C55ADA4F90E0A9014C5A5A4F2D5A5B
:103D80003A4F19929F5FEBE5F5E0A3E5B5E01D9290
:103D900085E0AB35B807D9F7DA019C93D9011C92BD
:103DA0002A9882918EBD0DB407FEFDCFB5E0E335B4
:103DB000FB07B9F72A9A983021F7DF91CF91089540
:103DC000982F990F990F990FE0E8F0E002C0F59550
:103DD000E7954A95E2F7A62FB0E0A90FB11D22237F
:103DE00021F1A55ABA4F9C919E2B9C936F5F880F2F
:103DF000EBE5F5E0A3E5B5E01D9225E0AB35B207B4
:103E0000D9F7A82FB0E0AD5ABA4F11966C9311971D
:103E10009C932A9882918EBD0DB407FEFDCF85E05C
:103E2000E335F807B9F72A9A0895E095A55ABA4FED
:103E30009C919E239C93DACF8F929F92AF92BF92D8
:103E4000CF92DF92EF92FF920F931F93CF93DF9366
:103E500084B18C6284B92A9A80E58CBD1DBCEBE5E7
:103E6000F5E0119285E0EB37F807D9F703E515E0A7
:103E70007801D12C8FE0882E9BE0992E27E0A22E8E
:103E800039E0B32E4CE0C42ECBE5D5E0E3E5F5E018
:103E90001192CE17DF07E1F7F701818210822A988D
:103EA000EBE5F5E082918EBD0DB407FEFDCF0E1758
:103EB0001F07C1F72A9AE3E5F5E01192CE17DF0755
:103EC000E1F7F7019182A0822A98EBE5F5E0829173
:103ED0008EBD0DB407FEFDCF0E171F07C1F72A9A3E
:103EE000E3E5F5E0119285E0EB35F807D9F7F70146
:103EF000B18210822A98EBE5F5E082918EBD0DB477
:103F000007FEFDCF0E171F07C1F72A9A8D2D0E94BD
:103F1000AF1EE3E5F5E01192CE17DF07E1F7F701F9
:103F2000C18210822A988A918EBD0DB407FEFDCF02
:103F3000F5E0C335DF07B9F72A9AD39482E0E80E9B
:103F4000F11CE4E0DE12A0CFDF91CF911F910F9121
:103F5000FF90EF90DF90CF90BF90AF909F908F90A9
:103F60000895843008F5880F23E535E0EBE5F5E0AA
:103F7000D90161111AC01D9295E0AB35B907D9F787
:103F8000A82FB0E0AD5ABA4F8CE011968C931197E0
:103F900081E08C932A9882918EBD0DB407FEFDCFEF
:103FA0002E173F07C1F72A9A08951D92EA17FB07BB
:103FB000E1F7A82FB0E0AD5ABA4F8CE011968C9380
:103FC00011971C922A9882918EBD0DB407FEFDCFE9
:103FD0002E173F07C1F72A9AE7CF843008F00895DB
:103FE000880FEBE5F5E0A3E5B5E01D9295E0AB3574
:103FF000B907D9F7A82FB0E0AD5ABA4F8AE01196A9
:104000008C9311976C932A9882918EBD0DB407FE04
:10401000FDCF85E0E335F807B9F72A9A0895843093
:1040200010F40C94AF1E0895843030F4683020F4FE
:10403000483010F40C94E01E0895843090F56830F8
:1040400080F5382F330F330F330FE42FF0E0E152B8
:10405000F84F9491211126C0E32FF0E0E55AFA4F72
:10406000E60FF11D90836F5F880FEBE5F5E0A3E5A8
:10407000B5E01D9225E0AB35B207D9F7A82FB0E027
:10408000AD5ABA4F11966C9311979C932A988291CE
:104090008EBD0DB407FEFDCF85E0E335F807B9F717
:1040A0002A9A08959068D8CFFB0126813781232B67
:1040B000C1F0609198018E32D1F0982F9F7D20E061
:1040C000973581F19D34E9F0482F80917B050E945E
:1040D0001D208091980181508093980180E090E0AC
:1040E000089597E09093980167E08E3231F76F5F03
:1040F00021E040E080917B050E94142080E090E068
:1041000008954DE480917B050E941D2060919801E7
:1041100061506093980120E04DE680917B050E94FC
:104120001D20D7CF47E580917B050E941D2060911F
:10413000980161506093980120E047E780917B05EA
:104140000E941D20C6CFCF93C82F60E080917D05CF
:104150000E94B11F80917D058C1741F0C0937D05B1
:1041600080919D0180937C05CF91089584E0809398
:104170007D05CF91089580E00E940F2081E00E948C
:104180000F2082E00E940F2083E00C940F20809388
:104190007B0561110E940F2080E091E008958093DB
:1041A0007B050E940F2080E091E008951F93CF933C
:1041B000DF930E941C1FC0E060E08C2F0E94B11FA3
:1041C00061E08C2F0E94ED1FCF5FC430A9F713E090
:1041D000D7E0C0E021E04C2F6D2F812F0E941420EA
:1041E0008FE99FE00197F1F700C00000CF5FC83072
:1041F00089F7D15070F7115058F780E00E940F20D6
:1042000081E00E940F2082E00E940F2083E00E9444
:104210000F2084E080937D05DF91CF911F91089559
:1042200080917D058430C9F020917C0590919D019D
:104230009217A0F490919D019150921B9E3168F0CD
:1042400061E090917E0591110DC060937E050E9402
:10425000B11F80919D0180937C05089590919D01EF
:10426000921BECCF60E060937E050E94B11F8091AD
:104270009D0180937C05F1CF0E945419789481E0D0
:104280000E941B1D06E017E0C2E085E0F82ED4E096
:1042900093E0E92E8091150483FF2CC080911504D2
:1042A00085FD28C0E9EAF1E093818091150483FF40
:1042B00028C08091150485FD24C0E9EAF1E08481DD
:1042C000981721F08091150483FF6BC0E0911104D1
:1042D0008E2F90E088309105E8F6FC01E45BFF4FFB
:1042E0000C94082F0E94F01710931104809115046C
:1042F00083FDD4CFEFEEF3E093818091150483FD2D
:10430000D8CFEFEEF3E0DBCF0E94891EF8940E9435
:104310000818C09311047894BDCF80914E0581FD9B
:10432000B9CFF0921104B6CF0E94F017F89481E053
:104330000E94371ED09311047894ACCF0E941C24A5
:104340000E94C4240E948F1A0E941021A3CF8AE0E9
:1043500005C0C0931104815009F49CCFEFE3FCE940
:104360003197F1F700C0000090914D05992389F332
:10437000E09211048FCF83E00E94461A81E080937F
:10438000110488CF0E9457078091150483FF16C03F
:104390000E9410218FE39FE10197F1F700C0000018
:1043A00079CF0E9457078091150483FF8FCF8091AA
:1043B0001104809312040093110488CF0E940818FE
:1043C0008091120480931104E3CF1F920F920FB6D5
:1043D0000F9211248F9380919C018F5F80939C0199
:1043E000809199018F5F8A3041F0809399018F917C
:1043F0000F900FBE0F901F90189510929901809109
:104400009D018F5F80939D0180919A01882379F3AC
:1044100080919B01811134C08091810080FF3EC05A
:104420008091A2018F3FC9F08091A201882329F0D9
:104430008091A20181508093A2018091A2018111FB
:104440000CC010929A01809181008E7F8093810030
:10445000809180008F7B8093800080919F018823D2
:10446000C1F080919F0180939B01809181008E7F9C
:1044700080938100809180008F7B80938000B7CFF4
:10448000815080939B018F910F900FBE0F901F90D2
:10449000189580919E0180939B01A9CF80919E01E8
:1044A00080939B0180918000806480938000809144
:1044B00081008160809381009ACF1F920F920FB686
:1044C0000F9211248F939F938091A0019091A1014D
:1044D00001969093A1018093A0019F918F910F90DD
:1044E0000FBE0F901F9018954F925F926F927F9220
:1044F000AF92BF92CF92DF92EF92FF920F931F93F2
:10450000CF93DF93CDB7DEB768970FB6F894DEBFD1
:104510000FBECDBF28E0ECE1F1E0DE015196019045
:104520000D922A95E1F7DC01CB01880F991FAA1F94
:10453000BB1F2C013D01440C551C661C771C440C10
:10454000551C661C771C480E591E6A1E7B1E6E0188
:1045500081E1C80ED11CFE0131967F0156018F0109
:10456000F601219131916F0140E050E0C301B201A9
:104570000E94C72E672B682B692B09F04DC0DA010A
:10458000C9010197A109B109F80180839183A28330
:10459000B3830C5F1F4F0A151B0511F790E02FEF37
:1045A0003FEF8FEFF70141915191619171917F013F
:1045B000411551056105710551F02901612C712CDE
:1045C000441555056605770510F49A01892F9F5FFC
:1045D000943041F78F3F31F1082E000C990B029671
:1045E000982F88279295990F907E822B932B68960F
:1045F0000FB6F894DEBF0FBECDBFDF91CF911F91F4
:104600000F91FF90EF90DF90CF90BF90AF907F9091
:104610006F905F904F900895F8011082118212827E
:104620001382B7CF80E090E0E2CF0E9474229C0119
:1046300010929C0110929D0190916E009D7F90932D
:104640006E0016BC2115310591F084B5826084BDE1
:1046500095B5832F829586958770892B85BD822F8E
:1046600027BD90916E00926090936E00089580E057
:1046700008959C01EFE6F0E090819D7F9083E0E853
:10468000F0E090819F7B9083309387002093860099
:104690001092850010928400E1E8F0E080818E7F26
:1046A000808388E180830895BC0180E090E00E94CF
:1046B00074221092A1011092A00120916F002D7F11
:1046C00020936F001092850010928400209180004A
:1046D0002F7B20938000009709F110928000209199
:1046E0008100286020938100209181002F7E2093FB
:1046F000810030918100292F229526952770232B48
:10470000209381009C013F713093890020938800A1
:1047100090916F00926090936F00089580E00895EB
:10472000843038F4823010F481110CC094E18AE0B6
:104730000895843039F4633040F0643019F49DE01A
:1047400085E0089590E080E0089591E18BE0089580
:104750001F920F920FB60F9211248F939F93EF9396
:10476000FF938091EE03E0910704F0910804E80FB5
:10477000F11D86B18083809152058823A9F0E091D4
:10478000EE03F0E0EE0FFF1F8091F4039091F5032C
:10479000E80FF91F8091A0019091A101918380837E
:1047A0001092A1011092A0018091EE038F5F80937F
:1047B000EE03FF91EF919F918F910F900FBE0F909D
:1047C0001F9018951F920F920FB60F9211248F937E
:1047D0009F93EF93FF938091A301E0910904F091DF
:1047E0000A04E80FF11D89B1808380915205882366
:1047F000A9F0E091A301F0E0EE0FFF1F8091F40318
:104800009091F503E80FF91F8091A0019091A1010B
:10481000918380831092A1011092A0018091A30145
:104820008F5F8093A301FF91EF919F918F910F90E4
:104830000FBE0F901F901895EF92FF920F931F934A
:10484000CF93DF9380911004882309F47BC0E12C7F
:10485000FF24F394E0910E04F0910F0481E1E89EAF
:1048600090011124E20FF31F8089807709F064C062
:1048700000910E0410910F04E801C20FD31FEE85C2
:10488000EF702EE0E29FF0011124EC5CFE4F0281FC
:1048900013810115110509F44FC08B85813009F48E
:1048A00066C080910704909108049093500580930E
:1048B0004F058091EE03809351058C8590915105B1
:1048C0008917D1F120914F0530915005F901E80F7A
:1048D000F11D60818D85F901E80FF11D8081762F32
:1048E00078274F81442309F1ED81FE81415050E04A
:1048F0004F5F5F4F4E0F5F1F60E02191822F90E06E
:10490000DC01A550BC4F3C9136FF0AC0263038F57B
:1049100002962F2D01C0220F8A95EAF7822F682B6D
:104920004E175F0751F76723A1F48C858F5F8C8743
:10493000909151059813C6CFE39480911004E81626
:1049400008F488CFDF91CF911F910F91FF90EF90E6
:104950000895CE01F80109958C858D87E7CF0697DC
:104960002F2D01C0220F8A95EAF7822FD8CF809190
:10497000090490910A049093500580934F0580910B
:10498000A3018093510599CF0F931F93CF938091EB
:1049900010048823E1F1C0E005C0CF5F80911004CE
:1049A000C817A8F5E0910E04F0910F0421E1C29F11
:1049B00080011124E00FF11F80898F70833069F727
:1049C00080910E0490910F04800F911F009781F049
:1049D000DC011E96EC91EF70BEE0EB9FF00111241C
:1049E000EC5CFE4F0680F781E02D309709F00995C9
:1049F000E0910E04F0910F04E00FF11F8089807F99
:104A00008160808BCF5F80911004C81758F2CF91DE
:104A10001F910F910895CF93DF93EC016F8166236F
:104A200049F1AD81BE814FEF460F50E04F5F5F4FC0
:104A30004A0F5B1F8FEF3FEF0AC0933009F4822FBC
:104A40003F3F11F08F3F91F44A175B0759F02D91CA
:104A5000E22FF0E0E550FC4F90819F70913069F7B4
:104A6000322FEECF3F3F31F08F3F21F0363048F00C
:104A7000863048F488898F788062888BDF91CF9167
:104A800008958630B8F7E32FF0E0E550FC4F9081B1
:104A900096FFF0CFE82FF0E0E550FC4F808186FDD7
:104AA000E9CF91E080E006C0933031F18F5F92E072
:104AB000861720F79130C1F7AD81BE81482F50E0B5
:104AC000FD01E40FF51F3081E32FF0E0E550FC4FCE
:104AD00020812F70213011F08F5FEACF811139C012
:104AE0001196EC91F0E0E550FC4F80818F7083309F
:104AF00061F182E093E0DCCFAD81BE81482F50E0D0
:104B0000FD01E40FF51F3081E32FF0E0E550FC4F8D
:104B100020812F70233001F78130B9F011968C91EC
:104B20001197382711963C93ED81FE81E40FF51F14
:104B3000808138273083ED81FE81DF01A40FB51F0E
:104B400091818C91892781836F8181E0860F93E029
:104B5000AFCF8C9138273C93ED81FE81E40FF51F98
:104B6000808138273083ED81FE81DF01A40FB51FDE
:104B700090818C9189278083AD81BE816F81B0CF78
:104B80001F93CF93DF93BC01FC01C581D6811781B0
:104B9000112321F1DE014FEF410F50E04F5F5F4FD6
:104BA0004C0F5D1F3FEF8FEF0AC0953009F4322F95
:104BB0008F3F11F03F3FD9F44A175B0759F02D9111
:104BC000E22FF0E0E550FC4F90819F70943069F740
:104BD000822FEECF8F3F11F03F3F49F4FB018089D8
:104BE0008F788062808BDF91CF911F9108958630FE
:104BF000D8F0363098F334E090E006C08530B9F054
:104C00009F5F35E0911778F7DE01A90FB11D2C9158
:104C1000E22FF0E0E550FC4F80818F70343071F767
:104C20008430A1F09F5FEECF3630C0F6E4CF9130F4
:104C300051F08981282729838C9128272C938981F9
:104C40002827298391E0910F35E0DCCF992349F0A3
:104C50008881282728838C9128272C9388812827CE
:104C6000288392E035E0CECFCF93DF93EC014F81E4
:104C70004423B9F0AD81BE81415050E04F5F5F4F9A
:104C80004A0F5B1F9D91E92FF0E0E550FC4F20811A
:104C900026FF04C0963098F481E08B87A417B507EF
:104CA00089F788898077A9F48E858F70843048F0E1
:104CB000843059F4CE01DF91CF910C94C02582E06D
:104CC000ECCF823048F4882339F088898F7880636C
:104CD000888BDF91CF910895CE01DF91CF910C9415
:104CE0000B25CF9380911004882359F1C0E0E09107
:104CF0000E04F0910F0421E1C29FC0011124E80FBE
:104D0000F91F20892068208B20910E0430910F0418
:104D1000820F931F009781F0DC011E96EC91EF70DB
:104D2000BEE0EB9FF0011124EC5CFE4F0190F0819E
:104D3000E02D309709F00995CF5F80911004C817D6
:104D4000B0F2E0910904F0910A0410821092A301DC
:104D5000E0910704F091080410821092EE03109283
:104D60005205CF910895FC01A085B1859089907F6F
:104D70009160908B148652961C9208958F929F9208
:104D8000AF92BF92CF92DF92EF92FF920F931F9359
:104D9000CF93DF93DC011896CD91DC9119979A8916
:104DA00080919D01981708F45BC080919D01981B2C
:104DB0001E968C911E978F7009F45CC0833009F4A5
:104DC0007AC030E0C12CD12C7601A12CB12C5096A8
:104DD0008C915097282F2F70213009F45EC080915C
:104DE0009D018A8B1C968C911C97E0914F05F09148
:104DF00050054F01880E911CF401208130E015967A
:104E00006D917C911697FB014081463008F0C6C039
:104E100050E0CA01029602C0359527958A95E2F7BF
:104E200045505C4FFA019081929593708901017011
:104E30001127492F50E00417150709F446C02360D5
:104E4000921709F442C0DF91CF911F910F91FF900B
:104E5000EF90DF90CF90BF90AF909F908F9008958C
:104E600080919D019150981B1E968C911E978F707A
:104E700009F0A4CF39E148EFC42EDD24DA94ED2CFB
:104E8000F12C5FE2A52E68E1B62E50968C915097DA
:104E9000282F2F70213009F0A2CF391708F09FCFAB
:104EA000807F826050968C9350971B8A1A861B864F
:104EB0001C861D8694CF38E0CC24CA94DC2CEC2CC4
:104EC000F12C27E1A22EB12C82CF50968C915097D5
:104ED0008F70823009F0B7CF8B898B1558F1F401B0
:104EE000408150E0FB012181263008F05BC030E0BA
:104EF0002E5F3F4F02C0559547952A95E2F74170C6
:104F00005527052E000C660B770B982F9B1904C0B4
:104F1000440F551F661F771F9A95D2F70A851B8588
:104F20002C853D85402B512B622B732B4A875B8749
:104F30006C877D878F5F8B8BA81608F084CF0E85DA
:104F40001F85288939890C211D212E213F210E879B
:104F50001F87288B398B4A855B856C857D85C422AC
:104F6000D522E622F722CA86DB86EC86FD860C1562
:104F70001D052E053F05D1F0CE86DF86E88AF98A29
:104F800050968C915097807F83608F7750968C934A
:104F90001A861B861C861D861B8A55CF50E0CA01C7
:104FA000069739CF30E026503109A4CF50968C9126
:104FB000509787FDE1CF807F816050968C93E8CF3A
:104FC000CF92DF92EF92FF920F931F93CF93DF93D5
:104FD000EC01ED81FE81E181F0E0E550FC4F908134
:104FE00097FB992790F9E885F9850685178520892B
:104FF00031898F85807F803209F46CC064E06C83D6
:10500000992319F000951095209568017901CC2419
:10501000DD2490E1E922FF2427FD28C0A9019801A1
:105020004F705527803209F466C0A8EEB3E00E94A5
:105030001D2F61587F4F8F4F9F4F26EF34E040E088
:1050400050E00E94C72EDA01C901880F991FAA1FDC
:10505000BB1F880F991FAA1FBB1F820F931FA41F7E
:10506000B51F88839983AA83BB8314C0A9019801C3
:105070004F705527803281F1A0E1B7E20E941D2FC9
:1050800020ED37E040E050E00E94C72E28833983AE
:105090004A835B83CD28CE28CF2879F088819981F7
:1050A000AA81BB81B095A095909581959F4FAF4FF8
:1050B000BF4F88839983AA83BB8341E06A85CE0171
:1050C000DF91CF911F910F91FF90EF90DF90CF90E4
:1050D0000C94742962E093CFACEEB9E00E941D2FCE
:1050E00068517C4F8F4F9F4F20ED37E040E050E0FC
:1050F0000E94C72ECBCFDA01C901B3CFFC01A08536
:10510000B1858089807F8160808B83E084831B965A
:105110001D921D921D921C921E971F961C921F9706
:10512000148650961C920895CF93DF93DC01189655
:10513000CD91DC91199750968C915097807F826029
:1051400050968C93509715964D915C911697FA0155
:105150008081863008F056C08E5F1C969C911C970B
:10516000E0914F05F0915005BF01690F711DFB01E2
:10517000208130E002C0359527958A95E2F7922F7D
:105180009370FA0181818630D0F542E0480FFB012F
:105190008081282F30E08FEF840F02C0359527954E
:1051A0008A95E2F723703327292B4F85440F440F4C
:1051B000E42FE22B4E2FEE0F550B660B770BFA0107
:1051C0003197EE30F105B8F4EC5AFF4F0C94082FEC
:1051D0004B855C856D857E854F5F5F4F6F4F7F4F41
:1051E0004B875C876D877E8750968C915097807F28
:1051F000836050968C932F87DF91CF9108954AEF6B
:10520000480FC5CF8650A9CF4B855C856D857E85BF
:105210004150510961097109E3CF0F931F93DC01DC
:105220001896ED91FC91199743855485658576858F
:105230008A019B01000F111F221F331F000F111F36
:10524000221F331F400F511F621F731FFC01408339
:1052500051836283738341E062851F910F910C94A7
:105260007429E4EAF1E08EEA93E09183808380E29E
:10527000828314821382EFEEF3E02EEC33E031836D
:105280002083828314821382E6EFF3E08EEA91E0BA
:105290009183808320E8228314821382E9EAF1E07B
:1052A0004EE252E051834083228314821382909312
:1052B0000A04809309042EEA32E030930804209314
:1052C00007049093F5038093F4030895CF93C82FB8
:1052D00080FD07C0C1FD02C0CF910895CF910C940D
:1052E0003F2C0E94D620F6CFEF92FF920F931F9390
:1052F000CF93DF93CDB7DEB764970FB6F894DEBFD8
:105300000FBECDBFE62E142FBC01CE0101960E9428
:105310006C2CF82E092F10FD13C011FF04C08F2D27
:10532000902F0E94552C64960FB6F894DEBF0FBEE6
:10533000CDBFDF91CF911F910F91FF90EF90089516
:105340008E2D0E94CF200F93FF9228E831E03F93EB
:105350002F939F938F930E94872F0F900F900F9002
:105360000F900F900F90D9CF60919D0124C0909124
:10537000150495FD24C0E6EFF3E0248130E0909120
:10538000150493FF24C09091150495FD20C0E6EF0D
:10539000F3E09381291B31099091150493FF20C0FC
:1053A0009091150495FD1CC0E6EFF3E0428150E0BA
:1053B00024173507E1F49091150493FDD8CFE4EA62
:1053C000F1E0248130E09091150493FDDCCFE4EA14
:1053D000F1E09381291B31099091150493FDE0CFF1
:1053E000E4EAF1E0428150E02417350721F390917F
:1053F0009D01961758F020919D0130E0261B310940
:105400002B30310574F08FEF9FEF089590919D013F
:105410002FEF30E0261B3109290F311D2B303105CC
:1054200094F7F8949091150493FF51C0909115044E
:1054300095FD4DC0E6EFF3E0248130E09091150436
:1054400093FF4DC09091150495FD49C0E6EFF3E040
:105450009381291B31099091150493FD49C0E4EA19
:10546000F1E0428150E02417350769F1909115046D
:1054700093FD5AC0E4EAF1E0408151819091150416
:1054800093FD4BC0E4EAF1E0248130E090911504F3
:1054900093FD3CC0E4EAF1E09281E92FF0E031971E
:1054A000E223F323E40FF51F80838091150483FD2D
:1054B00026C0E4EAF1E084818F5F84838091C1009B
:1054C00080628093C100789480E090E00895E4EADF
:1054D000F1E0248130E09091150493FDB3CFE4EA2C
:1054E000F1E09381291B31099091150493FFB7CF07
:1054F0009091150495FDB3CFE6EFF3E0B2CF809124
:10550000150485FDD6CFE6EFF3E0D5CF90911504D5
:1055100095FDC0CFE6EFF3E0BFCF9091150495FD68
:10552000B1CFE6EFF3E0B0CF9091150495FDA2CF97
:10553000E6EFF3E0A1CFF8948091150483FF04C057
:105540008091150485FF62C0EFEEF3E093818091B6
:10555000150483FF04C08091150485FF5AC0EFEE47
:10556000F3E08481981709F457C08091150483FFF4
:105570001FC08091150485FD1BC0E9EAF1E0408160
:1055800051818091150483FF1BC08091150485FD16
:1055900017C0E9EAF1E0838190E02091150423FF30
:1055A00017C02091150425FD13C0E9EAF1E012C0EF
:1055B000EFEEF3E0408151818091150483FDE5CF4A
:1055C000EFEEF3E0838190E02091150423FDE9CF15
:1055D000EFEEF3E02281E22FF0E03197E823F923A8
:1055E000E40FF51F808190E02091150423FD07C092
:1055F000EFEEF3E023812F5F2383789408952091C9
:10560000150425FDF5CFE9EAF1E0F4CFE9EAF1E090
:105610009DCFE9EAF1E0A5CF8EEF9FEFEECF1F928D
:105620000F920FB60F9211242F933F934F936F93C6
:105630007F938F939F93EF93FF934091C600809148
:10564000150483FF04C08091150485FF7DC0EFEE33
:10565000F3E0848190E02091150423FF04C02091A1
:10566000150425FF77C0EFEEF3E02381821B91093B
:105670002091150423FF04C02091150425FF67C065
:10568000EFEEF3E0228130E08217930709F447C080
:105690008091150483FF1FC08091150485FD1BC0F8
:1056A000E9EAF1E0608171818091150483FF1BC0FC
:1056B0008091150485FD17C0E9EAF1E0848190E04E
:1056C0002091150423FF17C02091150425FD13C058
:1056D000E9EAF1E012C0EFEEF3E0608171818091C0
:1056E000150483FDE5CFEFEEF3E0848190E0209197
:1056F000150423FDE9CFEFEEF3E02281E22FF0E085
:105700003197E823F923E60FF71F408380911504B2
:1057100083FD13C0EFEEF3E084818F5F8483FF91FC
:10572000EF919F918F917F916F914F913F912F9129
:105730000F900FBE0F901F9018958091150485FD56
:10574000E9CFE9EAF1E0E8CFE9EAF1E082CFE9EA7E
:10575000F1E098CFE9EAF1E088CF1F920F920FB6FF
:105760000F9211242F934F935F938F939F93EF93F7
:10577000FF938091150483FF04C08091150485FF79
:105780006DC0E4EAF1E093818091150483FF04C0C9
:105790008091150485FF65C0E4EAF1E084819817E3
:1057A00009F464C08091150483FF1FC08091150423
:1057B00085FD1BC0E6EFF3E0408151818091150427
:1057C00083FF1BC08091150485FD17C0E6EFF3E051
:1057D000838190E02091150423FF17C020911504C8
:1057E00025FD13C0E6EFF3E012C0E4EAF1E04081EA
:1057F00051818091150483FDE5CFE4EAF1E08381D6
:1058000090E02091150423FDE9CFE4EAF1E0228144
:10581000E22FF0E03197E823F923E40FF51F9081A0
:105820008091150483FD13C0E4EAF1E083818F5F6A
:1058300083839093C600FF91EF919F918F915F9129
:105840004F912F910F900FBE0F901F901895809140
:10585000150485FDE9CFE6EFF3E0E8CFE6EFF3E0EE
:1058600092CFE6EFF3E0848198139CCF8091C10042
:105870008F7D8093C100DFCF8EE091E00895EFE748
:10588000F5E08EE091E0938382839183808383E0CF
:105890008093C4001092C5001092C00088E98093E4
:1058A000C10086E08093C2000895CF93DF93EC019E
:1058B0008881882359F02196609181057091820535
:1058C00090E00E94B42F89918111F6CF8DE891E08C
:1058D000DF91CF910C941A302F923F924F925F92AA
:1058E0006F927F928F929F92AF92BF92CF92DF92F0
:1058F000EF92FF920F931F93CF93DF93CDB7DEB755
:105900002E970FB6F894DEBF0FBECDBF4B01DC0162
:105910001F961C92DB012D913D914D915C91298741
:105920003A874B875C8729013A0157FDB4C01C01B7
:10593000BEE02B0E311CE0E06BC0A3019201559537
:1059400047953795279529833A834B835C83D30109
:10595000C201BB0F880B982FDC018D839E83AF8320
:10596000B88729813A814B815C816D81762F862FA2
:10597000962F01E00E942A2FA980BA80CB80DC807C
:10598000ED80FE2C0E2D1E2D0E94462F59016A011E
:105990007B01F82F192F04E00E942A2F0F2F0E945D
:1059A000462F59016A017B01F82F192F08E00E9448
:1059B0002A2F0F2F0E94462F59016A017B01F82FD1
:1059C000192F00E10E942A2F0F2F0E94462FF22F3D
:1059D00003E00E942A2FF87F4F1AF22FFF0F4F1A71
:1059E000F42DFA3020F0FA50A1E00E944F2FC101AF
:1059F000F05DD101FC93422E532E642E752EEF5F85
:105A0000B1E02B1A3108411451046104710469F0AA
:105A1000D40114968C91E81390CFEF3009F48DCF18
:105A2000C101FEE2D101FC93EACFD40114962C917E
:105A30002F3071F0E21750F430E3DC013E93CD01DA
:105A4000EF5FD40114962C91E217B8F3E21761F1DD
:105A500029853A854B855C8557FF04C0FC012DE202
:105A60002293CF012E960FB6F894DEBF0FBECDBFA6
:105A7000DF91CF911F910F91FF90EF90DF90CF902A
:105A8000BF90AF909F908F907F906F905F904F905E
:105A90003F902F9008957094609450944094411CCE
:105AA000511C611C711C43CFFC0131972EE22083F5
:105AB000319720E32083CF01CBCF4F925F926F923B
:105AC0007F928F929F92BF92CF92DF92EF92FF923E
:105AD0001F93CF93DF93FC016B014A017901DA0137
