:100000000C944B040C9468040C9468040C946804DD
:100010000C94F41F0C9431200C9468040C94680424
:100020000C9468040C9468040C9468040C94981E56
:100030000C9468040C9468040C94261E0C946804B8
:100040000C9468040C9468040C94BC260C945627F9
:100050000C9468040C94941A0C9468040C9468042E
:100060000C9468040C9468049F06A606B306B706B1
:10007000CB06D106E806271627160E1627162716D2
:10008000271627160E160E160E16CB18F11807197E
:100090002419061A181A1B1AD01DD71DEA1DF31DA4
:1000A000FC1D031E0C1E111ED324CA24E624CA24E0
:1000B000E624E624D324D324E624E624CA24E62432
:1000C000CA24D324FB09DA09F409F30C080E3F1102
:1000D0002A0BCE0B570D980E780A320AD70AA711B1
:1000E000B611C511460C1E122612520D3A0FFA1106
:1000F0000D0A000A020100040702000004030203C3
:100100000004FD0100000AF70101000AF2010200EB
:100110000AED0103000AE80104000AE20105000AF1
:10012000E001000003DE01010003DC01020003D650
:1001300001030003D001040003CB01050003C50146
:10014000060003C00101000CBD0102000CB7010054
:100150000006B101010006AA01020006A301030086
:10016000069F010400069B01050006970106000694
:100170008F0107000687010800067F010900066657
:100180006173746F757400756E69746F7574007A3D
:1001900065726F6F7574007A696E0062696E0061D6
:1001A000696E0064617461696E00636C6B6F757475
:1001B00000636C6B696E00756E646566006D6D0042
:1001C000696E6368006F74686572006564676500D6
:1001D000746163686F00616E676C65007A00790016
:1001E000780070756C736500717561640062696E8A
:1001F00036006263643700323162697400323462FF
:10020000697400307C31003130003031009D0201D2
:100210009A02029502038D02048902056D02068589
:1002200002078102087E02097C020A77020B720231
:100230000C90020D6A020E67020F6302105E02113B
:100240005A02125502135102144C02156C756D6955
:1002500000636E7400646F666600646F6E006E6F9C
:10026000746500736D700070720065780074797049
:100270006500756E69740074696D6500700063686F
:10028000006D7367006C656400696E7600696C00D0
:10029000667265710066756E6300656900646576F7
:1002A000005A0354034F03480342033E033703300D
:1002B00003290323031B0315030D030403FD02F6A7
:1002C00002EE02E902E402DC02D502CD026C6564B2
:1002D0006C756D6900746573746368006564697436
:1002E0006465760073617665006C6F6164006C65AF
:1002F00064696E666F006C65646D7367006C65643D
:10030000636C72006C6564626C696E6B006B65791E
:10031000696E666F0061626F757400646576696E00
:10032000666F0064656C63680064656C6465760084
:10033000656469746368006368696E666F006275FE
:100340007A00616464636800616464646576006572
:100350007869740073657475700068656C70003E30
:100360000021040C04FB03E603C203B003940386DC
:10037000037303746F6F206D616E7920617267750E
:100380006D656E7473006F7574206F66206D656D9A
:100390006F72790072657175697265642061726748
:1003A000756D656E74206E6F7420666F756E640077
:1003B000636F6D6D616E64206E6F7420666F756E15
:1003C0006400696E76616C69642076616C75652085
:1003D000666F7220617267756D656E742027257374
:1003E000273A20257300696E76616C69642061721A
:1003F00067756D656E743A20257300696E76616C61
:1004000069642070726F746F636F6C00696E7661DF
:100410006C6964206368616E6E656C2074797065C8
:10042000006368616E6E656C206973206275737914
:10043000002573202D204572726F723A20002573BB
:10044000202D204F4B005D050100045A05000004DB
:100450005605030004500500000A4A0501000A453C
:100460000502000A400503000A3B0504000A3505A1
:1004700005000A330500000331050100032F0502C2
:100480000003290503000323050400031E050500DE
:10049000031805060003130501000C100502000CEB
:1004A0000A050000060405010006FD04020006F628
:1004B00004030006F204040006EE04050006EA0444
:1004C000060006E204070006DA04080006D2040962
:1004D0000006666173746F757400756E69746F756C
:1004E00074007A65726F6F7574007A696E00626964
:1004F0006E0061696E0064617461696E00636C6BAB
:100500006F757400636C6B696E00756E6465660070
:100510006D6D00696E6368006F7468657200656474
:10052000676500746163686F00616E676C65007A6F
:10053000007900780070756C7365007175616400F6
:1005400062696E360062636437003231626974003A
:10055000323462697400307C310031300030310057
:10056000F00501ED0502E80503E00504DC0505C022
:100570000506D80507D40508D10509CF050ACA051F
:100580000BC5050CE3050DBD050EBA050FB605102C
:10059000B10511AD0512A80513A405149F05156C2E
:1005A000756D6900636E7400646F666600646F6EDB
:1005B000006E6F746500736D700070720065780076
:1005C0007479706500756E69740074696D6500708A
:1005D000006368006D7367006C656400696E760087
:1005E000696C00667265710066756E63006569000E
:1005F00064657600AD06A706A2069B0695069106E1
:100600008A0683067C0676066E066806600657062E
:100610005006490641063C0637062F0628062006E6
:100620006C65646C756D69007465737463680065EE
:100630006469746465760073617665006C6F6164EB
:10064000006C6564696E666F006C65646D7367004D
:100650006C6564636C72006C6564626C696E6B00DF
:100660006B6579696E666F0061626F7574006465B1
:1006700076696E666F0064656C63680064656C64BF
:10068000657600656469746368006368696E666FA7
:100690000062757A00616464636800616464646523
:1006A0007600657869740073657475700068656CB0
:1006B00070004B657920636F6465203D20253032E2
:1006C0006420414443204368616E6E656C203D2088
:1006D0002564094144432056616C7565203D202501
:1006E0006400546573742077617320696E74657259
:1006F0007275707465640028707265737320616E22
:1007000079206B657920746F2073746F7020746525
:1007100073742900467265712028485A29203D20AB
:10072000256C642043682564203D09005B50432507
:10073000645D09005B504425645D09002F636820F7
:10074000256409002F64657620256409002F257330
:1007500020256409002F257320257309000D0A0048
:100760002E2E2E00576169740030312E31312E3219
:10077000303139007665722E20302E3200207368B9
:1007800044524F0030312E31312E32303139007623
:1007900065722E20302E320020736844524F005371
:1007A00043416E2020004164632E256420202020D8
:1007B000004164632E25643D253033640057616930
:1007C0007400446F75626C652E253032640050727F
:1007D00065737320253032640045786974007E307B
:1007E0006D79335B5F707F7B771F0D3D4F47000056
:1007F00000000000000000000000000000000000F9
:1008000000000000000000000000800180007E3039
:100810006D79335B5F707F7B0000000900E5007736
:100820001F4E3D4F4700170600000E66151D67005E
:10083000055B0F1C3E1E370000000000000800771B
:100840001F0D3D4F4700170600000E72151D670073
:10085000055B0F1C3E3C37000000000000009008C4
:100860008D088908850882087F087D087A0876083F
:1008700072086D687A006B687A00687A0073006DA0
:1008800073007573006465670072706D006D6D00B4
:10089000696E6368000011241FBECFEFD8E0DEBF91
:1008A000CDBF11E0A0E0B1E0EAECFCE502C00590AC
:1008B0000D92A039B107D9F725E0A0E9B1E001C058
:1008C0001D92A638B207E1F70E94881D0C94632E92
:1008D0000C9400006093A3014093A4012093A7010E
:1008E0001092A0010E94681F81E080939F010895EB
:1008F00010929F01E1E8F0E080818E7F8083E0E844
:10090000F0E080818F7B80830895219A10929F016F
:100910000895E82FCB01E7FD0CC0EE0FFF0BEC5361
:10092000FF4F259134912115310519F0642FF901FC
:10093000099486E008954F925F926F927F928F9212
:100940009F92AF92BF92CF92DF92EF92FF920F935E
:100950001F93CF93DF93C82F762E672E7A01522EE6
:100960000E94DE27182F092FC11111C06F927F92AC
:100970008EE394E09F938F930F931F930E94262BF7
:100980000F900F900F900F900F900F908FC08CEFE3
:100990008C0F823008F05AC0E701412C80E090EFC4
:1009A000C92E90E0D92E21E3E22E24E0F22E32EC83
:1009B000A32E33E0B32E46EE842E43E0942E45144E
:1009C00009F465C08A858F708630D9F46F927F9262
:1009D000FF92EF920F931F930E94262B8E818F938D
:1009E0008D818F939F928F920F931F930E94262B3E
:1009F0008DB79EB70C960FB6F8949EBF0FBE8DBFF5
:100A000049C08730F9F46F927F92FF92EF920F9373
:100A10001F930E94262B88858F938F818F938E81C1
:100A20008F938D818F93BF92AF920F931F930E94EC
:100A3000262B8DB79EB70E960FB6F8949EBF0FBEAD
:100A40008DBF28C080E043942B96B9CF6F927F92E0
:100A500081E394E09F938F930F931F930E94262B23
:100A6000EC2FF0E0EE0FFF1FE15AFC4F85919491BF
:100A70009F938F930F931F930E94262B8DB79EB742
:100A80000A960FB6F8949EBF0FBE8DBF0FC081119E
:100A900019C00CC0DF92CF920F931F930E94262B98
:100AA0000F900F900F900F9081E0CDCF80EF90E0EE
:100AB0009F938F930F931F930E94262B0F900F905D
:100AC0000F900F90DF91CF911F910F91FF90EF90BA
:100AD000DF90CF90BF90AF909F908F907F906F905E
:100AE0005F904F900895CF92DF92EF92FF920F9315
:100AF0001F93CF93DF938C01DC0119961C921997F9
:100B00001596CD90DC9016979DE0E92E92E0F92E97
:100B1000C0E0D0E0F70165917491C6010E94042BFA
:100B2000892B61F4FE01EE0FFF1FEC0FFD1FE15F4B
:100B3000FD4FE491D8011996EC9307C02196B3E0DC
:100B4000EB0EF11CC531D10529F7DF91CF911F9133
:100B50000F91FF90EF90DF90CF900895BF92CF92CA
:100B6000DF92EF92FF920F931F93CF93DF931F9229
:100B7000CDB7DEB78C01FC018285807F8287198228
:100B8000B18483EFC82E80E0D82EE12CF12C80E0D8
:100B9000F6013496E491BE121EC0F601659174917F
:100BA000F801878190850E94042B892B99F4F80124
:100BB0008285807F8260828785E08E9DF0018F9D97
:100BC000F00D1124EB50FF4F85919491F801918322
:100BD00080830DC081E0FFEFEF1AFF0A95E0C90E98
:100BE000D11CECE1EE16F10499F6882351F0F801DE
:100BF0008285982F9F70923009F447C0807F87606C
:100C00008287F80182858F7009F03FC087819085C7
:100C10000E94B529882329F0F8018285807F8160B0
:100C20002EC0B801F801878190850E94BF298823D2
:100C300029F0F8018285807F846021C0B801F80125
:100C4000878190850E94E629882329F0F801828512
:100C5000807F856014C09E012F5F3F4FA8014C5FCD
:100C60005F4FB801F801878190850E941929F8012A
:100C70009285882331F089818295807F8360828785
:100C800004C0907F9760F80192870F90DF91CF9119
:100C90001F910F91FF90EF90DF90CF90BF9008953C
:100CA0006F927F928F929F92AF92BF92CF92DF927C
:100CB000EF92FF920F931F93CF93DF93EC01762E69
:100CC0004A0159016801FA01118210828FEFF9017E
:100CD0008083F7011082611105C010E000E080E21E
:100CE000682E23C0F801C801C796168215821086A7
:100CF0001782108211821282138214823B968E1701
:100D00009F0799F7EACF9BEF900F923020F090E089
:100D10000E94FC2A88838881803208F46882802FB0
:100D200090E08730910528F0219688818111EBCFE2
:100D300012C0FC01EC5CFF4F88810C94A92A803220
:100D400099F3F401D183C08301E0EECF803261F7E3
:100D50001882711049C0F40180809180811491043F
:100D600009F048C045C08F32F9F603E0DDCF80328C
:100D7000D9F2F7018081853009F47AC08F5F8083D2
:100D8000F6019BE0899FE00DF11D11243B97D6836E
:100D9000C58304E0C9CF803239F6188210E005E03F
:100DA000C3CF803209F4C0CFF7018081F6019BE008
:100DB000899FE00DF11D11243B97D087C78388815F
:100DC00011E0823219F0873209F010E006E0ACCF72
:100DD000112331F0823251F0873209F0A5CF06C0DD
:100DE000803209F0A1CF188202E09ECF10E09CCFA4
:100DF00086E03FC001EA12E0C0E0F801659174911D
:100E0000C4010E94042B892B19F4F501C08305C08D
:100E1000CF5F0E5F1F4FC63181F7F501808187FDDF
:100E2000E7CFD0E0C0E0F7018081D817F8F4860161
:100E3000FBE0DF9F000D111D1124C8010E94730506
:100E4000F8018185882351F0C8010E94AE05F801A0
:100E500082858F70873041F4C5E006C0F801828535
:100E6000807F86608287C4E0DF5FDDCF8C2F01C08A
:100E700089E0DF91CF911F910F91FF90EF90DF906C
:100E8000CF90BF90AF909F908F907F906F9008957C
:100E9000CF92DF92EF92FF920F931F93CF93DF9346
:100EA00000D000D0CDB7DEB70E94DE27D82EC92EE5
:100EB0001A8219828FEF8C831B8280911A0483FF20
:100EC00007C080911A0485FD03C0EEEAF1E002C07C
:100ED000E4EFF3E0938180911A0483FF07C08091CF
:100EE0001A0485FD03C0EEEAF1E002C0E4EFF3E08E
:100EF0008481981709F488C180911A0483FF07C080
:100F000080911A0485FD03C0EEEAF1E002C0E4EF2F
:100F1000F3E04081518180911A0483FF07C08091E2
:100F20001A0485FD03C0AEEAB1E002C0A4EFB3E04D
:100F300014968C9190E020911A0423FF07C0209111
:100F40001A0425FD03C0AEEAB1E002C0A4EFB3E08D
:100F500012962C91E22FF0E03197E823F923E40F69
:100F6000F51F3197FA83E98380818D3021F08A3033
:100F700011F0811149C180911A0483FF07C080914B
:100F80001A0485FD03C0EEEAF1E002C0E4EFF3E0ED
:100F9000848190E020911A0423FF07C020911A0455
:100FA00025FD03C0EEEAF1E002C0E4EFF3E02381A7
:100FB000821B910920911A0423FF07C020911A0473
:100FC00025FD03C0EEEAF1E002C0E4EFF3E0228188
:100FD00030E08217930709F446C080911A0483FF1A
:100FE00007C080911A0485FD03C0EEEAF1E002C05B
:100FF000E4EFF3E04081518180911A0483FF07C040
:1010000080911A0485FD03C0AEEAB1E002C0A4EFEE
:10101000B3E014968C9190E020911A0423FF07C04E
:1010200020911A0425FD03C0AEEAB1E002C0A4EF8E
:10103000B3E012962C91E22FF0E03197E823F923E8
:10104000E40FF51F108280911A0483FF07C080917E
:101050001A0485FD03C0EEEAF1E002C0E4EFF3E01C
:1010600084818F5F848380911A0483FF07C08091FD
:101070001A0485FD03C0EEEAF1E002C0E4EFF3E0FC
:101080004081518180911A0483FF07C080911A0426
:1010900085FD03C0EEEAF1E002C0E4EFF3E0238156
:1010A00030E080911A0483FF07C080911A0485FD07
:1010B00003C0EEEAF1E002C0E4EFF3E09281892F91
:1010C00090E00197822393236D2D7C2D840F951F33
:1010D0000E947D2B80EF90E09F938F93CF92DF92C1
:1010E0000E94262B60911A0463FB662760F98091A9
:1010F0001A040F900F900F900F9083FF07C08091FC
:101100001A0485FD03C0EEEAF1E002C0E4EFF3E06B
:101110000190F081E02D80911A0483FF07C0809137
:101120001A0485FD03C0AEEAB1E002C0A4EFB3E04B
:1011300013962C9130E080911A0483FF07C08091B0
:101140001A0485FD03C0AEEAB1E002C0A4EFB3E02B
:1011500012968C9190E00197822393239E012D5F3C
:101160003F4F790103EB13E02F5F3F4FAE014F5F1D
:101170005F4F8E0F9F1F0E94500690911A0493FD9F
:1011800003C09C8192301CF4882319F00AC086E0C9
:1011900008C04B8163EB73E08C810E9489048F3F10
:1011A00039F069817A812B8143EB53E00E949B04E3
:1011B00080911A0483FF0CC08FE593E09F938F9377
:1011C000CF92DF920E94262B0F900F900F900F90DE
:1011D00080911A0483FF07C080911A0485FD03C023
:1011E000EEEAF1E002C0E4EFF3E0138280911A042A
:1011F00083FF07C080911A0485FD03C0EEEAF1E089
:1012000002C0E4EFF3E014820F900F900F900F9064
:10121000DF91CF911F910F91FF90EF90DF90CF90D2
:101220000895E82F9B0150E0541751F0C901255F44
:101230003F4FD90112976C916E1721F05F5FF4CF89
:1012400080E090E00895DB01E2E6F5E020E030E0A8
:10125000949198130DC0F901EE0FFF1FE20FF31FD9
:10126000E05AFA4F659174918D919C910C940D2BDD
:101270002F5F3F4F33962531310551F70895AAE48A
:10128000B4E020E030E0FD019491981313C0329750
:10129000E491E6130FC085E0829FF001839FF00D7B
:1012A0001124EA5BFB4F65917491FA018081918171
:1012B0000C940D2B2F5F3F4F15962C31310519F7EC
:1012C00008959F92AF92BF92CF92DF92EF92FF92DA
:1012D0000F931F93CF93DF93CDB7DEB768970FB609
:1012E000F894DEBF0FBECDBFD82EE42EC52EB62E8D
:1012F000A72E922ECE010B96988F8F8B0A979E8BDE
:101300008D8B0E94DE27182FF92EBE01695E7F4F5C
:101310008D2D0E9423099920C1F0AE014B5E5F4FD5
:101320006E2D8D2D0E943F098E898F938D898F930D
:10133000888D8F938F898F9385E597E09F938F9307
:10134000FF921F930E94262B10C0AF92BF92CF92A4
:10135000EF92888D8F938F898F938DE497E09F9381
:101360008F93FF921F930E94262B0FB6F894DEBF37
:101370000FBECDBF002361F08DE597E09F938F9363
:10138000FF921F930E94262B0F900F900F900F90AB
:1013900068960FB6F894DEBF0FBECDBFDF91CF9138
:1013A0001F910F91FF90EF90DF90CF90BF90AF9083
:1013B0009F90089580911A0483FD14C080911A04AF
:1013C000886080931A0483E00E94261D27EA36E095
:1013D0003F932F939F938F930E94262B0F900F90F4
:1013E0000F900F9080E00895EAE1F4E08081877F1C
:1013F000808380E00895EF92FF920F931F93CF9325
:10140000DF930E94DE27182F092F80E090E02DE562
:10141000E22E27E0F22EEC012296FE01EC50FA4F6C
:10142000859194919F938F930F931F930E94262BE6
:10143000FF92EF920F931F930E94262BCE012DB7A0
:101440003EB7285F3F4F0FB6F8943EBF0FBE2DBF8B
:10145000AA9709F780E0DF91CF911F910F91FF903C
:10146000EF900895CF93DF930E94DE272DE737E0BA
:101470003F932F939F938F930E94262B0E94DE27EA
:10148000CDE5D7E0DF93CF939F938F930E94262BD8
:101490000E94DE2724E737E03F932F939F938F939B
:1014A0000E94262B0E94DE27DF93CF939F938F937A
:1014B0000E94262B0E94DE2729E637E03F932F93D8
:1014C0009F938F930E94262B0E94DE27DF93CF935A
:1014D0009F938F930E94262B8DB79EB748960FB689
:1014E000F8949EBF0FBE8DBF80E0DF91CF9108952D
:1014F000CF92DF92EF92FF920F931F93CF93DF93E0
:101500000E94DE27D82EC92E10E084E4E82E87E062
:10151000F82E80911504181708F03FC0C0911304ED
:10152000D091140481E1189FC00DD11D11241F9288
:101530001F93FF92EF92CF92DF920E94262B4E854F
:101540004F7050E060E070E000E021E08AE00E942F
:1015500061094F854F7050E060E070E021E083E06A
:101560000E9461094A8550E060E070E020E087E079
:101570000E9461094F8542954F7050E060E070E035
:1015800001E021E08CE00E9461091F5F0F900F9045
:101590000F900F900F900F90BCCF80E0DF91CF9114
:1015A0001F910F91FF90EF90DF90CF900895CF9211
:1015B000DF92EF92FF920F931F93CF93DF930E94DE
:1015C000DE27D82EC92EE12CF12C02EB16E0CDE55A
:1015D000D7E0F701EE0FFF1FDF01A55EBA4F9C9128
:1015E000E45EFA4F808183702081269526951F92B4
:1015F0009F9390E006969F938F931F922F931F9334
:101600000F93CF92DF920E94262B8FE99FE00197E4
:10161000F1F700C00000DF93CF93CF92DF920E94DA
:10162000262B9FEFE91AF90A8DB79EB70E960FB6D3
:10163000F8949EBF0FBE8DBF98E1E916F10449F6FC
:1016400080E0DF91CF911F910F91FF90EF90DF909D
:10165000CF9008956F927F928F929F92AF92BF9298
:10166000CF92DF92EF92FF920F931F93CF93DF936E
:101670000E94DE27182F792EC0E0D0E08CE2C82E21
:1016800087E0D82E94E3A92E97E0B92E2CE3822E82
:1016900027E0922E6C2E85E08C1738F0CE01029652
:1016A0009F938F93BF92AF9206C0CE0106979F93F0
:1016B0008F93DF92CF927F921F930E94262B0F90E1
:1016C0000F900F900F900F900F90DF93CF939F92FA
:1016D0008F927F921F930E94262BCE0180509C4FA9
:1016E0007C01FC0140814F7050E060E070E000E060
:1016F00021E086E00E946109F701408146FB442712
:1017000040F950E060E070E020E082E00E94610972
:10171000F70140814295437050E060E070E021E0C5
:1017200084E00E946109862D0E942617682E082FEA
:10173000001F0027001FF701408147FB442740F9A5
:1017400050E060E070E020E085E00E9461090F90C9
:101750000F900F900F900F900F9067FC0AC0462DCE
:10176000660C550B660B770B01E020E081E00E94D0
:1017700061092196CC30D10509F08CCF80E0DF9152
:10178000CF911F910F91FF90EF90DF90CF90BF907E
:10179000AF909F908F907F906F900895CF92DF923F
:1017A000EF92FF921F93CF93DF93EC01162F462FFA
:1017B000BC0189E00E941109FC01892B09F45BC07E
:1017C0009285892F8F70833051F4C080D180E28060
:1017D000F3808CE0C816D104E104F10428F0907F76
:1017E0009760928785E04AC0412FBE0186E00E9443
:1017F0001109009759F0F601E050FC4FDC018C9183
:10180000982F9F708081807F892B8083412FBE011C
:1018100082E00E941109DC01892B41F0F601E050C1
:10182000FC4F90818C9180FB96F99083412FBE01F3
:1018300084E00E941109009769F0F601E050FC4F26
:10184000DC018C918370982F9295907F80818F7CA2
:10185000892B8083412FBE0185E00E941109FC0184
:10186000892B59F0D601A050BC4F9C91808180FB00
:1018700097F99C9302C087E001C080E0DF91CF918F
:101880001F91FF90EF90DF90CF90089580E0089532
:10189000FF920F931F93CF93DF938B01F42E87FF5B
:1018A00033C081E00E941109FC01892B09F492C028
:1018B0008285982F9F709330A9F480819181A281B5
:1018C000B3814091150450E041505109052E000CA0
:1018D000660B770B481759076A077B0714F0B7FFA9
:1018E00006C08285807F8760828785E076C0C09150
:1018F0001304D091140441E1489F9001499F300D99
:101900001124C20FD31F09C0C0911304D091140435
:1019100091E18902C00DD11D11244F2DB80183E042
:101920000E941109009741F0FC018081982F9F705F
:101930008F85807F892B8F874F2DB80187E00E948C
:101940001109009719F0FC0180818A874F2DB80199
:101950008CE00E941109009749F0FC018081982FCA
:101960009295907F8F858F70892B8F874F2DB8012F
:101970008AE00E941109009779F1FC018081918130
:101980002E85422F4F7050E04817590729F18F706C
:10199000207F822B8E87888599858E01085F1F4F57
:1019A000892B39F0A80160E081E00E943912198684
:1019B00018866F856F708E858F700E94C11FA80179
:1019C000692F81E00E94391288859985892B21F43D
:1019D00088E003C087E001C080E0DF91CF911F91D4
:1019E0000F91FF900895FF920F931F93CF93DF9372
:1019F00000D0CDB7DEB78C01F62E1A821982809105
:101A0000150461E1689F600D1124AE014F5F5F4FC7
:101A100080E00E94391289819A810097D1F19093D8
:101A2000140480931304809115048F5F8093150430
:101A3000E0911304F09114048091150491E1899FC1
:101A4000E00DF11D1124719711861086E0911304A9
:101A5000F09114048091150491E1899FE00DF11D2E
:101A60001124719716821582E0911304F0911404E9
:101A70008091150491E1899FE00DF11D112471976A
:101A80001782809115044F2DB80181500E94480C97
:101A900001C088E00F900F90DF91CF911F910F91BF
:101AA000FF900895462FBC018FEF0C94480CCF9205
:101AB000DF92EF92FF920F931F93CF93DF93CDB7F7
:101AC000DEB761970FB6F894DEBF0FBECDBF462FCD
:101AD000BC0181E00E941109FC01892B09F486C038
:101AE0008285982F9F709330A9F4C080D180E280C6
:101AF000F3804091150450E041505109052E000C2F
:101B0000660B770B4C155D056E057F0514F0F7FE2F
:101B100006C08285807F8760828785E06AC0809169
:101B20001304909114042C2D31E12302800111241F
:101B3000800F911F0E941D13809115040C2C000C26
:101B4000DD0890E00197C816D906B9F1E0911304B9
:101B5000F0911404E00FF11F81E1DE011196019074
:101B60000D928A95E1F7A0911304B0911404E091CD
:101B70001304F091140480911504A00FB11F91E19A
:101B8000899FE00DF11D1124719781E101900D9263
:101B90008A95E1F7A0911304B09114048091150483
:101BA00021E1829FA00DB11D1124519781E1FE0119
:101BB000319601900D928A95E1F78091150481503C
:101BC000809315048091150461E1869F602D112496
:101BD00043E154E080E00E943912809115048111A4
:101BE00007C0109214041092130403C087E001C0D0
:101BF00080E061960FB6F894DEBF0FBECDBFDF91D7
:101C0000CF911F910F91FF90EF90DF90CF900895AB
:101C1000BF92CF92DF92EF92FF920F931F93CF93D9
:101C2000DF938C01B62E462FBC0181E00E94110982
:101C3000FC01892B09F46DC08285982F9F70933029
:101C4000A9F4C080D180E280F3804091150450E077
:101C500041505109052E000C660B770B4C155D05A4
:101C60006E057F0514F0F7FE05C08285807F8760D2
:101C7000828729C0C0911304D09114044B2DB80160
:101C800089E00E9411098C01009709F442C0DC012F
:101C90001A962C911A97822F8F70833031F0922FE1
:101CA000907F97601A969C930EC0F8018081918175
:101CB000A281B3818C309105A105B10530F0922F3E
:101CC000907F9760928785E029C00E94261787FF42
:101CD00022C021E12C9DC0012D9D900D1124C80F23
:101CE000D91FAE014B5F5F4F6F816F5F82E00E9433
:101CF00039128D819E81009781F02F812F5F2F8374
:101D0000820F911DFC013197D8018C91808380E076
:101D100005C087E003C081E001C088E0DF91CF917A
:101D20001F910F91FF90EF90DF90CF90BF9008959B
:101D30008F929F92AF92BF92CF92DF92EF92FF92DB
:101D40000F931F93CF93DF938C01B62E462FBC01C8
:101D500081E00E941109FC01892B09F47BC0828576
:101D6000982F9F709330A9F4C080D180E280F380D7
:101D70004091150450E041505109052E000C660BAE
:101D8000770B4C155D056E057F0514F0F7FE06C058
:101D90008285807F8760828785E05FC0C091130461
:101DA000D09114044B2DB80189E00E941109FC0167
:101DB000892B09F44FC09285892F8F708330B1F43D
:101DC00080809180A280B3808CE088169104A10469
:101DD000B10460F421E12C9DC0012D9D900D1124D2
:101DE000C80FD91F8F8120E030E004C0907F97603A
:101DF0009287D2CF2817F0F46D817E81A901FB0173
:101E0000E20FF31F90812F5F3F4FC92ED12CE12CA1
:101E1000F12C8C149D04AE04BF0461F7E82FF0E0B0
:101E20003197E60FF71F80819083ED81FE81E40FEB
:101E3000F51F80836F816150AE014B5F5F4F82E081
:101E40000E9439128F8181508F83811105C01E82BB
:101E50001D8203C087E001C080E0DF91CF911F9118
:101E60000F91FF90EF90DF90CF90BF90AF909F9039
:101E70008F9008952F923F924F925F926F927F9230
:101E80008F929F92AF92BF92CF92DF92EF92FF928A
:101E90000F931F93CF93DF938C01F62E462FBC0137
:101EA00089E00E941109EC01892B09F4D2C18A85CD
:101EB000982F9F70953021F0807F87608A87CBC1F3
:101EC0004F2DB8018FE00E9411096C01009709F4B1
:101ED000C0C1FC0160817181828193810E94AF1E2B
:101EE000892B09F4B8C1F60180809180A280B3806B
:101EF0004F2DB80180E10E941109009739F0FC01D3
:101F000022852F70233011F4F08002C0FF24FA9450
:101F1000C880D980F8940E9469158BE194E0909371
:101F20000F0480930E0490930D0480930C049093FF
:101F30005105809350051092A8011092F303C0E060
:101F4000D0E000E010E0C6010C2E02C09695879507
:101F50000A94E2F780FF11C0FE01E050FC4F80813F
:101F600086FF0BC08C2F0E948D1525E02C1718F4CE
:101F700003EF13E002C008EA11E02196CC30D1054E
:101F800011F72091F9033091FA0380E090E0F90114
:101F9000E80FF91F118210820296811542E0940722
:101FA000B1F780E090E0E0915005F0915105E80F25
:101FB000F91F108201968115E1E09E07A1F760E00C
:101FC00070E0CB010E94431F80911A0480628093CD
:101FD0001A0480911A04806180931A0481E080932E
:101FE0005305C4010E94831F78940E94DE2724E6D3
:101FF00037E03F932F939F938F930E94262B0E944D
:10200000DE2720E637E03F932F939F938F930E9424
:10201000262B0E94DE2727EF36E03F932F939F93D6
:102020008F930E94262B0E94DE272DE537E03F93F9
:102030002F939F938F930E94262B2DB73EB7205F3F
:102040003F4F0FB6F8943EBF0FBE2DBFF801808101
:102050008F1530F480914E058823C1F3C1E001C093
:10206000C0E0F8940E9469151092530568EE73E081
:1020700080E090E00E94431F7894CC2379F00E9486
:10208000DE2722EE36E03F932F939F938F930E949B
:10209000262B0F900F900F900F908CC0C0E0D0E0D7
:1020A00030E4432E32E4532E3FE0632E712CC0FE09
:1020B0007AC00E94DE27082FF92EDF93CF93C30149
:1020C000B201A50194010E94682A5F934F933F9348
:1020D0002F9384E197E09F938F93FF920F930E9439
:1020E000262B2DB73EB7265F3F4F0FB6F8943EBF65
:1020F0000FBE2DBF1E01C63020F036E0231A310876
:1021000003C042E0240E311C00E010E0E091F9032E
:10211000F091FA03C801880F991FE80FF91FE080BA
:10212000F180E114F10419F4EE24E394F12CE09130
:102130005005F0915105E00FF11F808190E0022CD5
:1021400002C0959587950A94E2F7E82FE1703E2E3C
:102150000E94DE271F923F9221E331E03F932F93AD
:102160009F938F930E94142B81E0E81AF1080F903F
:102170000F900F900F900F900F9051F70F5F1F4F20
:10218000011591E0190709F0C1CF0E94DE27EDE5A6
:10219000F7E0FF93EF939F938F930E94262B0F906E
:1021A0000F900F900F90D694C7942196CC30D10504
:1021B00009F07DCF0E94DE272DE537E03F932F9376
:1021C0009F938F930E94262B80911A048F7D80937A
:1021D0001A040E941C1580911A040F900F900F9002
:1021E0000F9083FF07C080911A0485FD03C0EBEFB9
:1021F000F3E002C0E9EAF1E0138280911A0483FF60
:1022000007C080911A0485FD03C0EBEFF3E002C024
:10221000E9EAF1E0148280911A0483FF07C08091FB
:102220001A0485FD03C0EEEAF1E002C0E4EFF3E03A
:10223000138280911A0483FF07C080911A0485FDE0
:1022400003C0EEEAF1E002C0E4EFF3E014828FEFA6
:1022500003C087E001C085E0DF91CF911F910F910E
:10226000FF90EF90DF90CF90BF90AF909F908F90B6
:102270007F906F905F904F903F902F900895DF92E6
:10228000EF92FF920F931F93CF93DF937C01C62FA2
:10229000611103C00E9478044FC0462FBC0181E148
:1022A0000E9411098C01009709F448C0FC01828545
:1022B000982F9F70933021F0807F8760828730C095
:1022C0004C2FB70182E10E941109FC01892B39F0E2
:1022D0009285892F8F70833001F5D08101C0DFEFA7
:1022E0004C2FB70183E10E941109FC01892B39F0C1
:1022F0009285892F8F70833081F4D08001C0D12CDA
:102300004C2FB70184E10E941109FC01892B61F077
:102310009285892F8F70833029F0907F9760928704
:1023200085E00DC0208101C02FEF4D2D6D2FF801EC
:10233000808191810E946A0480E001C087E0DF9182
:10234000CF911F910F91FF90EF90DF900895462F4E
:10235000BC0187E00E941109009731F0FC018081E7
:102360000E94FB1C80E0089587E00895462FBC0181
:1023700087E00E941109009731F0FC0180810E94E2
:102380001F1C80E0089587E00895FF920F931F932C
:10239000CF93DF938C01F62E462FBC0187E00E947D
:1023A0001109EC01892BF9F04F2DB80188E00E944A
:1023B00011090097C1F0FC011081018188810E9400
:1023C000261D0F931F9324E231E03F932F939F9399
:1023D0008F930E94142B0F900F900F900F900F90DF
:1023E0000F9080E001C087E0DF91CF911F910F91A6
:1023F000FF900895FF920F931F93CF93DF938C016B
:10240000F62E462FBC0187E00E941109EC01892BB2
:1024100071F04F2DB80185E10E941109009739F044
:10242000FC01608188810E94181C80E001C087E067
:10243000DF91CF911F910F91FF9008950E941C157D
:10244000811102C088E0089580E008950E94461539
:1024500080E00895E5E0F5E0118210821282339663
:1024600085E0EB33F807C1F71092180510921705B5
:102470000895DF92EF92FF920F931F93CF93DF9314
:10248000FA018130D1F080F0823009F0CEC005E051
:1024900015E087E1E82E85E0F82ED80120E090E0F5
:1024A00080E0C0E0D0E056C0673600F58BE194E0F4
:1024B0009183808360931705B8C0808191816111F9
:1024C00018C0009709F4B1C08158944064E170E0ED
:1024D0000E94402A81E090E001C0880F6A95EAF7E7
:1024E0008095909118058923809318051182108298
:1024F0009CC0892B09F099C02091180530E080E03C
:1025000090E0482FB901082E02C0759567950A948E
:10251000E2F760FD14C024E1829FC00111248F57AF
:102520009B4F9183808381E090E001C0880F4A95A2
:10253000EAF790911805892B8093180576C00196CB
:1025400086309105F1F671C02097A1F01396EA1636
:10255000FB0691F04D915C91119741155105A1F346
:1025600012963C911297830FE417F50779F7262FFF
:10257000231B982FED01EACF462F50E0480F511D45
:102580004D3051050CF0B2CF27FD11C0211108C00C
:102590006A83611133C019821882E5E0F5E020C03A
:1025A0003FEF380F8FEF890F932F7FEF01C071E05E
:1025B000022E000C330B981759F3492F50E0DA0123
:1025C000A750BB4FDC90420F531FDA01A750BB4FFF
:1025D000DC92970FF0CF339685E0E431F80781F075
:1025E00080819181892BB9F783819481A581808332
:1025F0009183A283148213821582EDCFF983E8833D
:1026000080E0D801ED91FC911197309749F0282F87
:1026100030E027503B4F3183208312969C91890FE5
:102620000D5F1F4FE016F10661F7DF91CF911F910B
:102630000F91FF90EF90DF900895CF93DF93EC011F
:10264000AC014B5F5F4F60E082E00E943912AE0147
:10265000485F5F4F60E081E00E943912198618865A
:102660001E821D821F82DF91CF910895CF938091AA
:1026700015048823D1F0C0E080911504C81768F4D0
:10268000809113049091140421E1C29F800D911D4B
:1026900011240E941D13CF5FEFCF109217051092E7
:1026A00014041092130410921504CF910895DF9230
:1026B000EF92FF920F931F93CF93DF93CDB7DEB7C7
:1026C0002A970FB6F894DEBF0FBECDBF1A8682E6FA
:1026D00091E098878F8319860E9436130E942A12F0
:1026E0008E01095F1F4F9E01265F3F4F41E0BE01F3
:1026F000675F7F4F8F8198850E94561761E070E079
:10270000CE0109960E94352A8A878F819885019685
:1027100098878F83998581E1989F802D1124873632
:1027200028F0109214041092130408C02BE134E036
:1027300030931404209313048093170520911304FD
:102740003091140481E02115310509F480E0232B38
:1027500009F498C090931504D12C9985D91608F0E6
:1027600091C08E01095F1F4F9E01265F3F4F46E0DB
:10277000BE016F5F7F4F8F8198850E94561766E07C
:1027800070E0CE0101960E94352A8A872F81388514
:102790002F5F3F4F38872F83811102C080E072C0C6
:1027A000E0901304F090140481E1D89EE00CF11C39
:1027B00011248981282F2F70F7019685907F922B05
:1027C00096879A81928782958F709785907F892BC3
:1027D00087879B819295907F8F70892B87878089CF
:1027E000807F8068808B1186108616821582178202
:1027F000A701485F5F4F6D8181E00E943912F701A8
:10280000608571858E01095F1F4F9E01265F3F4FD6
:102810004C818F8198850E9456176C8170E0F7017A
:10282000808591850E94352A8A872F8138852F5F80
:102830003F4F38872F83882309F4B0CF6E81F7018B
:102840006783A7014B5F5F4F82E00E943912F70157
:10285000658176819E01265F3F4F4E818F819885ED
:102860000E9456176E8170E0F701858196810E9463
:10287000352A8A872F8138852F5F3F4F38872F83EE
:10288000D3946BCF2A960FB6F894DEBF0FBECDBFA0
:10289000DF91CF911F910F91FF90EF90DF900895FE
:1028A000AF92BF92DF92EF92FF920F931F93CF935D
:1028B000DF93CDB7DEB728970FB6F894DEBF0FBE13
:1028C000CDBF82E691E098878F8361E070E085E17B
:1028D00094E00E94352A8E01095F1F4F282F41E0A6
:1028E00065E174E08F8198850E949C178F8198859F
:1028F000019698878F83D12C80911504D81608F003
:1029000065C0E0901304F090140481E1D89EE00CBF
:10291000F11C1124F70167856F7086858F700E9406
:10292000C11FF701368522852A832785422F4295CC
:10293000407F3F70342B398322952F702B838C83FB
:102940009D8387818E8366E070E0CE0101960E94B0
:10295000352A8E01095F1F4F282F46E0BE016F5FA9
:102960007F4F8F8198850E949C178F819885019653
:1029700098878F835701F8E0AF0EB11C6C8170E02F
:10298000C5010E94352A282F4C81B5018F81988579
:102990000E949C178F819885019698878F83F701F5
:1029A000678170E0858196810E94352AF7016581F3
:1029B0007681282F47818F8198850E949C178F816F
:1029C0009885019698878F83D39496CF28960FB6D3
:1029D000F894DEBF0FBECDBFDF91CF911F910F9155
:1029E000FF90EF90DF90BF90AF9008950F931F93EB
:1029F000CF93DF9300D01F92CDB7DEB71B8289E45F
:102A000091E09A8389838E010F5F1F4F9E012D5F96
:102A10003F4F4CE060E074E00E9456176CE070E0BD
:102A200080E094E00E94352A0F900F900F90DF9184
:102A3000CF911F910F9108950E94F61481110C946B
:102A4000571380E008950F931F93CF93DF9300D027
:102A5000CDB7DEB789E491E09A8389836CE070E0BA
:102A600080E094E00E94352A8E010F5F1F4F282FCF
:102A70004CE060E074E089819A810E949C170F907D
:102A80000F90DF91CF911F910F9108950E94231510
:102A90000C945014CF93C0E080911504C817B8F47B
:102AA000E0911304F091140481E1C89F9001112476
:102AB000E20FF31F90899F7041F48091130490916D
:102AC0001404820F931F0E94D121CF5FE5CFCF91D5
:102AD0000895CF93DF938CE690E0FC012081E0E144
:102AE000F4E02083CDE6D0E028812183A8E6B0E0A1
:102AF0002C912283FC01108218821C92DF91CF91CD
:102B00000895E0E1F4E0808180936C0081818093FE
:102B10006D008281809368000895282F30E0863010
:102B200088F440916D002E5F3F4F81E090E001C03E
:102B3000880F2A95EAF7842B80936D0080916800B6
:102B4000846010C040916C002650310981E090E013
:102B500001C0880F2A95EAF7842B80936C0080913E
:102B6000680082608093680008958F929F92BF9260
:102B7000CF92DF92EF92FF920F931F93CF93DF9349
:102B80000E94691500E010E0CC24C394D12C809100
:102B90001504081708F0B7C0E0901304F09014046F
:102BA00021E1029FE00CF11C1124B12CF701878177
:102BB000B81608F0A6C0D70150968C915097807730
:102BC00009F05FC08B2C912C1596ED91FC91169716
:102BD000E80DF91D1081C12FD0E0FE01E050FC4F3F
:102BE000808186FF03C0812F0E948D15F7018581AA
:102BF0009681FC01E80DF91DE081F0E0E050FC4F0A
:102C00008081E82FEF708E2F90E08A30910508F0D8
:102C100076C0FC01E55CFF4F0C94A92A163018F42D
:102C2000EAE2F0E002C0E7E2F0E09081163038F42A
:102C300022968C2D01C0880FCA95EAF706C0269708
:102C40008C2D01C0880FCA95EAF7892B57C0163022
:102C500018F0E7E2F0E002C0EAE2F0E0208116308E
:102C600038F42296C60101C0880FCA95EAF706C05B
:102C70002697C60101C0880FCA95EAF7809582237E
:102C80003DC0163018F4EAE2F0E002C0E7E2F0E0FE
:102C90004081812F90E09C01163050F42E5F3F4F11
:102CA000D60102C0AA0FBB1F2A95E2F79D0109C0F9
:102CB00026503109B60102C0660F771F2A95E2F748
:102CC0009B01209524232083163018F4EBE2F0E0DA
:102CD00002C0E8E2F0E02081163040F402967C2D3C
:102CE00001C0770F8A95EAF7872F07C00697AC2DAA
:102CF00001C0AA0F8A95EAF78A2F822B8083B394AA
:102D000055CF0F5F44CF4AEF5FEF62E070E020E005
:102D100030E0E1E0F0E0D901A050BC4F8C91982F59
:102D20009F7011F086FF32C0A22F263018F0C7E244
:102D3000D0E002C0CAE2D0E0B881CF01A63030F4C2
:102D4000062E01C0880F0A94EAF705C0042E01C0C0
:102D5000880F0A94EAF780958B238883A63018F0B1
:102D6000C8E2D0E002C0CBE2D0E098818E2FA6303E
:102D700030F4062E01C0880F0A94EAF705C0042E2D
:102D800001C0880F0A94EAF7892B88832F5F3F4F91
:102D90006F5F7F4F4F5F5F4F2C30310509F0BBCF26
:102DA000DF91CF911F910F91FF90EF90DF90CF9027
:102DB000BF909F908F900895109216041092150462
:102DC000109214041092130483E08093180410925C
:102DD000190480911A048D7F80931A0480911A043B
:102DE0008B7F80931A0480911A04877F80931A0442
:102DF00080911A048F7E80931A0480911A048F7D2B
:102E000080931A04EBE1F4E0119285E0E931F807D0
:102E1000D9F70E940225809118040E9437250E944C
:102E200085040E941C150E944A150E94B5150E9437
:102E30009D1B811103C083E08093160468EE73E04C
:102E400080E090E00E94431F0C94042290E02091C7
:102E50001504921710F521E1929FA001112420E0A2
:102E6000E0911304F0911404E40FF51F3781231748
:102E700090F4E0911304F0911404E40FF51F058021
:102E8000F681E02DE20FF11D3081381302C0892F49
:102E900008952F5FE5CF9F5FDACF8FEF0895F89900
:102EA000FECF92BD81BDF89A80B508956F927F9252
:102EB0008F929F92AF92BF92CF92DF92EF92FF924A
:102EC0000F931F93CF93DF937C013901842E912CB4
:102ED0006B01C80CD91CEB015C01A61AB70AC5012D
:102EE0008C0F9D1FCC15DD0521F00E944F17899393
:102EF000F6CFE80CF91CC7010E944F17F30180833D
:102F0000F801F182E082DF91CF911F910F91FF9044
:102F1000EF90DF90CF90BF90AF909F908F907F9079
:102F20006F900895F999FECFF89492BD81BD60BD70
:102F3000FA9AF99A789408957F928F929F92AF921D
:102F4000BF92CF92DF92EF92FF920F931F93CF9396
:102F5000DF937C01722E842E912C6B01C80CD91C3E
:102F6000EB015C01A61AB70AC5018C0F9D1FCC1599
:102F7000DD0521F069910E949217F6CFE701C80D97
:102F8000D91D672DCE010E949217F801D183C0830D
:102F9000DF91CF911F910F91FF90EF90DF90CF9035
:102FA000BF90AF909F908F907F90089580FF34C026
:102FB00083E00E94261D28E937E03F932F939F93DB
:102FC0008F930E94262B82E00E94261D2FE837E077
:102FD0003F932F939F938F930E94262B81E00E9413
:102FE000261D24E837E03F932F939F938F930E94F1
:102FF000262B2FEF83ED90E3215080409040E1F7A6
:1030000000C000008DB79EB70C960FB6F8949EBF17
:103010000FBE8DBF0C94121D0895CF93DF93809146
:103020004F0580FF4DC080914B05882309F443C0B4
:10303000C0914F05C3FBCC27C0F9D0914B0583E06D
:103040000E94261D1F92CF931F92DF932AE231E048
:103050003F932F939F938F930E94142B90914B0536
:103060002DB73EB7285F3F4F0FB6F8943EBF0FBE57
:103070002DBF80919001913011F48F5F05C0909128
:103080004B05923018F0815080939001C0919001CF
:1030900080E00E94261D1F92CF9321E331E03F93F1
:1030A0002F939F938F930E94142B0F900F900F904C
:1030B0000F900F900F9080914F058E7F80934F055A
:1030C000DF91CF91089560E070E090E0DB01AA0FFE
:1030D000BB1FFD01E45EFA4F4081437020919C01CB
:1030E00050E030E0265031094217530769F4A55EDD
:1030F000BA4F2C9130E0235031098217930724F006
:1031000080818695869508956F5F7F4F6831710540
:10311000E9F680E0089598E0981B892F0895CF93F1
:10312000DF9386E00E948B1860E00E941E1D1F92B4
:1031300026E02F93C6EAD7E0DF93CF939F938F9338
:103140000E94262B87E00E948B1860E00E941E1DC3
:103150001F9227E02F93DF93CF939F938F930E942B
:10316000262B8DB79EB70C960FB6F8949EBF0FBE58
:103170008DBFDF91CF910895CF93DF93E0919301BD
:103180008E2F90E08730910508F0A8C1FC01EB5B21
:10319000FF4F0C94A92A80E00E941F1C81E00E942E
:1031A0001F1C82E00E941F1C83E00E941F1C81E004
:1031B0008093920180E090E0FC01EE0FFF1FDF01A1
:1031C000A55EBA4F1C92E45EFA4F208123702083E3
:1031D00020812C7F208301968831910569F781E059
:1031E00024C160E083E00E941E1D2DEB37E03F9379
:1031F0002F939F938F930E94262B80914E050F90C3
:103200000F900F900F90811169C182E00EC1C091A3
:10321000920183E00E94261D1F92CF932EEC37E08F
:103220003F932F939F938F930E94262B10924C05D0
:103230001092910183E0809393010F900F900F9073
:103240000F900F900F904AC180914D050E948F18EA
:1032500080914E05882309F4D2C060E083E00E948B
:103260001E1D2FE937E03F932F939F938F930E946A
:10327000262B80914C050F900F900F900F908B355F
:1032800008F4BDC0D0914C05C0914D0580914D050D
:103290008A5F0E948B1860E00E941E1D1F92DF93C0
:1032A0002C2F30E02A5F3F4F3F932F9321EB37E0E5
:1032B0003F932F939F938F930E94262B60919201AF
:1032C00070E08DB79EB708960FB6F8949EBF0FBEFC
:1032D0008DBF40E050E09A01220F331FF901E45EF8
:1032E000FA4F80818695869509F443C08081869542
:1032F000869590E086179707B1F180818370E09101
:103300004D0590E0F0E08E179F0769F5F901E55E45
:10331000FA4F8081E0914C0590E08E1B910997FF58
:1033200003C09195819591090497ECF4F901E45E4D
:10333000FA4FC081C695C69583E00E94261D1F9254
:10334000CF9322EC37E03F932F939F938F930E946C
:10335000262B85E0809393010F900F900F900F9094
:103360000F900F9006C04F5F5F4F4831510509F035
:10337000B2CF81E08093910180919301853009F46F
:10338000ADC020919201A22FB0E060E070E0CB01CF
:10339000880F991FFC01E45EFA4F408146954695DF
:1033A00050E04A175B0761F4FC01E55EFA4F90813B
:1033B00080914C05981740F580914C0580831FC083
:1033C000308136953695A9F430914D05432F4370E1
:1033D00030813C7F342B3083220F220F30813370B9
:1033E000232B208320914C05FC01E55EFA4F2083BE
:1033F00006C06F5F7F4F6831710549F605C0809147
:103400009101882309F46AC084E00FC080914E05C1
:1034100081110AC0809192018F5F8093920189315E
:1034200008F4F3CE86E001C083E08093930156C098
:1034300080914E05E8CE80E090E0C0E0AC014F5FA7
:103440005F4FDA01AA0FBB1FFD01E45EFA4F7081E6
:103450007370A55EBA4F2C91880F991FFC01E45E32
:10346000FA4F60816370FC01E55EFA4F808130E0C5
:10347000372B90E0962B8217930758F48D919C91EF
:1034800011972081318111963C932E9391838083F3
:10349000C1E0CA014731510589F6C111CCCF83E0A3
:1034A0000E94261D29ED37E03F932F939F938F9322
:1034B0000E94262B9FEF23ED80E391502040804017
:1034C000E1F700C000000E94121D80914F058D7F22
:1034D00080934F050F900F900F900F90DF91CF9139
:1034E00008958823D9F080917C00877080939C0197
:1034F00080919C01863011F086E001C087E08093C6
:103500009C0180917C00876080937C0080919C016D
:1035100090917C00886F892380937C0080917A0051
:10352000806480937A0008951F920F920FB60F92D5
:1035300011242F933F934F935F936F937F938F93B8
:103540009F93AF93BF93CF93EF93FF932091790015
:10355000C0919C012A3508F420E080919B018F5F87
:1035600080939B01803458F48091990190919A0145
:10357000820F911D90939A018093990102C080342B
:1035800011F080E093C0C6508091990190919A010A
:1035900026E0969587952A95E1F710929A01109268
:1035A000990110929B0180934C05C0934D05409169
:1035B0004E0521E030E00C2E01C0220F0A94EAF7FC
:1035C0008B3510F0242B02C02095242320934E0528
:1035D00020914F0521FF03C00E94BC1866C02091B6
:1035E0004F0520FD62C00E946318909198018917D1
:1035F00019F01092970105C0909197019F5F9093E9
:1036000097018093980190919701992309F4B9CF7C
:10361000909196019B3020F4953020F049E103C051
:1036200045E001C042E3811105C020919501C2131C
:1036300005C022C020914B0582131EC02091940129
:103640003091A201622F70E0321730F02091A20178
:1036500030E0261B370B08C05091A2012FEF30E05D
:10366000261B370B250F311D50E042175307ECF492
:1036700020914B05821319C020914B05821304C081
:103680009F5F9093960102C01092960180934B0524
:103690008091A20180939401C093950110929801AA
:1036A00080914F05816080934F0581E00E94711ADF
:1036B000FF91EF91CF91BF91AF919F918F917F91AA
:1036C0006F915F914F913F912F910F900FBE0F908F
:1036D0001F901895882341F080914F058260809358
:1036E0004F051092930108950C94BC180F931F93EB
:1036F000CF93DF930BE115E0C0E0D1E0CE010E9453
:103700004F17F80181938F012196C033F1E0DF0755
:10371000A9F780E391E00E944F17C82F60E370E0A3
:103720008BE195E00E94352A91E0C81390E0892F43
:10373000DF91CF911F910F9108950E94761BEFE4C6
:10374000F5E090819D7F908396E090939C01ECE75B
:10375000F0E090E6908390819760908390919C0137
:103760002081986F922390839FE890937A00089528
:10377000FF920F931F93CF93DF9360E370E08BE191
:1037800095E00E94352AF82E0BE115E0C0E0D1E06B
:10379000F80161918F01CE010E9492172196C033EA
:1037A000F1E0DF07A9F76F2D80E391E0DF91CF9182
:1037B0001F910F91FF900C949217CF93DF9300D03D
:1037C000CDB7DEB769834A83880FACE5B5E0E4E5A1
:1037D000F5E0119295E0EC35F907D9F7E82FF0E024
:1037E0008981EC5AFA4F81838A8180832A988E914D
:1037F0008EBD0DB407FEFDCF85E0A435B807B9F73F
:103800002A9A0F900F90DF91CF910895843040F461
:10381000662311F040E001C041E06CE00C94DD1B38
:103820000895462F843018F46BE00C94DD1B089546
:10383000462F843018F46AE00C94DD1B08950F9332
:103840001F93CF93DF93843090F4182FC82FCC0FA1
:10385000CC0FCC0FD0E0C45ADA4F00E019920F5FC2
:1038600040E0602F812F0E94DD1B0830B9F7DF9107
:10387000CF911F910F910895CF9384B18C6284B939
:103880002A9A80E58CBD1DBCECE5F5E08CE795E05F
:1038900011928E179F07E1F7C0E040E06FE08C2F98
:1038A0000E94DD1B67E08C2F0E94111C40E069E044
:1038B0008C2F0E94DD1B8C2F0E941F1C61E08C2F1F
:1038C0000E94061CCF5FC43041F7CF910895CF937B
:1038D000DF93843058F5683048F5483038F5E0E833
:1038E000F0E002C0F595E7954A95E2F7482F440FBE
:1038F000440F440F50E0A62FB0E0EA01CA0FDB1FCF
:10390000C45ADA4F222319F09881E92B03C0E095BD
:103910009881E923E883445A5A4FFA01EA0FFB1FC2
:103920006F5F4081DF91CF910C94DD1BDF91CF91D0
:1039300008958430B8F46830A8F4982F990F990F3F
:10394000990FE42FF0E0E252F84F449121114068C2
:10395000E92FF0E0E45AFA4FE60FF11D40836F5F64
:103960000C94DD1B0895FB0126813781232B19F46C
:1039700097E090939D018E3291F1982F9F7D20E0EA
:10398000973579F447E560919D0180917C050E940F
:10399000991C60919D01615060939D0120E047E773
:1039A00014C09D3479F44DE460919D0180917C05B3
:1039B0000E94991C60919D01615060939D0120E0DF
:1039C0004DE603C0482F60919D0180917C050E94C7
:1039D000991C80919D01815080939D0109C0609147
:1039E0009D016F5F21E040E080917C050E94671C93
:1039F00080E090E00895CF93C82F60E080917E052D
:103A00000E94061C80917E058C1739F0C0937E05BC
:103A10008091A20180937D0503C084E080937E05A0
:103A2000CF91089580E00E941F1C81E00E941F1C1E
:103A300082E00E941F1C83E00C941F1C80937C0575
:103A400061110E941F1C80E091E0089580937C0525
:103A50000E941F1C80E091E008951F93CF93DF9395
:103A60000E943C1CC0E060E08C2F0E94061C61E0BC
:103A70008C2F0E94181CCF5FC430A9F7D3E0C7E099
:103A800010E021E0412F6C2F8D2F0E94671C8FE3E7
:103A90009CE90197F1F700C000001F5F183089F71B
:103AA000C15070F7D15058F780E00E941F1C81E090
:103AB0000E941F1C82E00E941F1C83E00E941F1CAA
:103AC00084E080937E05DF91CF911F9108958091CE
:103AD0007E058430E1F020917D059091A20192173E
:103AE00018F09091A20103C09091A2019150921BF5
:103AF0009E3168F061E090917F05911160E06093E4
:103B00007F050E94061C8091A20180937D05089587
:103B10000E94DC16789481E00E94711AD6E017E0CA
:103B2000C2E005E084E0F82E93E0E92E80911A04CB
:103B300083FF07C080911A0485FD03C0EEEAF1E01F
:103B400002C0E4EFF3E0938180911A0483FF07C081
:103B500080911A0485FD03C0EEEAF1E002C0E4EFB3
:103B6000F3E08481981781F080911A0483FD0CC0E2
:103B70000E94480780911A0483FF06C080911604B2
:103B800080931704D0931604E09116048E2F90E0D2
:103B90008830910558F6FC01E45BFF4F0C94A92A8C
:103BA00083E00E94D61781E080931604BFCF8AE09D
:103BB000EFE3FCE93197F1F700C0000090914E056A
:103BC000992319F0E0921604B1CFC09316048150E6
:103BD00079F7ACCF0E945E220E948A200E940D18C5
:103BE0000E94671DA3CF0E946915F89481E00E948E
:103BF0006A1BF09216040EC080914F0581FD96CF8E
:103C00000093160493CF0E94B81BF8940E9481156C
:103C1000C093160478948ACF0E94691510931604F5
:103C200085CF0E94480780911A0483FD06C00E9438
:103C3000811580911704809316040E94671D8FE3FD
:103C40009FE10197F1F700C0000070CF1F920F9223
:103C50000FB60F9211248F938091A1018F5F8093F3
:103C6000A10180919E018F5F8A3019F080939E019F
:103C700059C010929E018091A2018F5F8093A20192
:103C800080919F01882309F44DC08091A00181118A
:103C900046C08091810080FF33C08091A7018F3F93
:103CA000C9F08091A701882329F08091A701815054
:103CB0008093A7018091A70181110CC010929F01F0
:103CC000809181008E7F80938100809180008F7B26
:103CD000809380008091A401882379F08091A401D1
:103CE0008093A001809181008E7F809381008091DC
:103CF00080008F7B8093800015C08091A30110C04D
:103D00008091A3018093A0018091800080648093C2
:103D100080008091810081608093810003C0815088
:103D20008093A0018F910F900FBE0F901F90189558
:103D30001F920F920FB60F9211248F939F93809131
:103D4000A5019091A60101969093A6018093A501EB
:103D50009F918F910F900FBE0F901F9018954F92CB
:103D60005F926F927F92AF92BF92CF92DF92EF926B
:103D7000FF920F931F93CF93DF93CDB7DEB7689772
:103D80000FB6F894DEBF0FBECDBF9B01AC0188E03B
:103D9000ECE1F1E0DE01519601900D928A95E1F798
:103DA000AAE0B0E00E94AF2A2B013C016E0181E144
:103DB000C80ED11CFE0131967F0156018F01F6011C
:103DC000219131916F0140E050E0C301B2010E94A6
:103DD000682A672B682B692B59F4DA01C90101970E
:103DE000A109B109F80180839183A283B38305C03F
:103DF000F80110821182128213820C5F1F4F0A1584
:103E00001B05E9F690E02FEF3FEF8FEFF7014191AF
:103E10005191619171917F014115510561057105C4
:103E200051F02901612C712C441555056605770563
:103E300010F49A01892F9F5F943041F78F3F61F012
:103E4000082E000C990B0296982F88279295990FAF
:103E5000907E822B932B02C080E090E068960FB694
:103E6000F894DEBF0FBECDBFDF91CF911F910F91B0
:103E7000FF90EF90DF90CF90BF90AF907F906F90CA
:103E80005F904F9008950E94AF1E1092A101109272
:103E9000A20120916E002D7F20936E0016BC00972A
:103EA000A1F024B5226024BD45B59C01232F332702
:103EB000229526952770242B25BD282F87BD90910C
:103EC0006E00926090936E0001C020E0822F0895F2
:103ED0009C01EFE6F0E090819D7F9083E0E8F0E0C8
:103EE00090819F7B9083309387002093860010926F
:103EF000850010928400E1E8F0E080818E7F80836D
:103F000088E180830895BC0180E090E00E94AF1EAC
:103F10001092A6011092A50120916F002D7F209391
:103F20006F001092850010928400209180002F7BFA
:103F300020938000009719F1109280002091810059
:103F4000286020938100209181002F7E20938100A2
:103F5000409181009C01232F3327229526952770BD
:103F6000242B209381009C013F7130938900209382
:103F7000880090916F00926090936F00089580E0A8
:103F80000895843028F4823030F4882321F010C062
:103F9000843021F00DC094E18AE00895633028F068
:103FA000643031F49DE085E0089591E18BE008955F
:103FB00090E080E0089561157105A9F0DB011E967F
:103FC000EC91EF70B7E0EB9FF0011124E80FF11DC9
:103FD000EE0FFF1FEC5CFE4F0190F081E02D30975B
:103FE00011F0CB01099408951F920F920FB60F9212
:103FF00011242F938F939F93EF93FF938091F3035B
:10400000E0910C04F0910D04E80FF11D86B180835E
:10401000809153058823B1F08091F3032091F90337
:104020009091FA03E22FF92FE80FF11DE80FF11D2F
:104030008091A5019091A601918380831092A601A1
:104040001092A5018091F3038F5F8093F303FF919A
:10405000EF919F918F912F910F900FBE0F901F9016
:1040600018951F920F920FB60F9211242F938F93D2
:104070009F93EF93FF938091A801E0910E04F0913C
:104080000F04E80FF11D89B18083809153058823C7
:10409000B1F08091A8012091F9039091FA03E22FE9
:1040A000F92FE80FF11DE80FF11D8091A501909106
:1040B000A601918380831092A6011092A5018091A0
:1040C000A8018F5F8093A801FF91EF919F918F913D
:1040D0002F910F900FBE0F901F901895FC018385B4
:1040E000813059F480910E0490910F049093510502
:1040F000809350058091A8010AC080910C04909192
:104100000D0490935105809350058091F3038093A3
:10411000520508951F93CF93DF9310E0809115040B
:10412000181710F5E0911304F091140481E1189F21
:10413000E0011124EC0FFD1F80898F70833091F412
:1041400060911304709114046C0F7D1F0E94DB1F9B
:104150008091130490911404C80FD91F8889807F1F
:104160008160888B1F5FDACFDF91CF911F91089517
:10417000CF93DF93FC01678180E090E0AFEF7FEFAA
:104180008617D0F425813681280F391FE90138813F
:10419000432F50E040505C4FEA0128812F702130BE
:1041A00021F0233019F4A32F01C0732F7F3F11F0AA
:1041B000AF3F59F40196E4CF7F3F11F0AF3F29F4B0
:1041C00080898F788062808B7CC0763008F475C0DF
:1041D000A630B0F3C72FD0E0C050DC4F888186FFF7
:1041E000EFCFB0E0A050BC4F8C9186FDE9CF91E0BD
:1041F00080E02781821708F064C0913041F5A581E5
:10420000B681282F30E0ED01C20FD31F5881C52F92
:10421000D0E0C050DC4F48814F70413009F049C0B8
:10422000882309F448C08C9185278C93A581B68199
:10423000A20FB31F9C9189278C93A581B681ED01B4
:10424000C20FD31F9C91888189278C9334C09330EF
:1042500069F5A581B681282F30E0ED01C20FD31F8B
:104260004881C42FD0E0C050DC4F98819F709330BC
:10427000F9F48130C9F011968C9111978427119629
:104280008C93A581B681A20FB31F9C9189278C9333
:10429000A581B681ED01C20FD31F11969C91119794
:1042A0008881892711968C93878102C092E001C092
:1042B00093E08F5F9ECF81E0CCCFA63008F48ACF09
:1042C0007FCFDF91CF9108950F931F93CF93DF930B
:1042D000EC01ED81FE813F815E2F8F019FEF8FEF1B
:1042E000202F251B2317B0F4D8014D918D01642F89
:1042F00070E060507C4FDB012C912F70243021F056
:10430000253019F4942F01C0842F8F3F49F39F3F2C
:1043100039F309C08F3F29F498899F789062988B70
:104320003BC09F3FC9F3863018F49630A8F702C00F
:10433000963090F394E080E0831770F5DF01A80FCA
:10434000B11D2C91C22FD0E0C050DC4F48814F707E
:10435000943071F44430D9F48823D9F0808128272F
:1043600020838C9128272C9380812827208311C0BB
:10437000453061F4813049F08181282721838C9177
:1043800028272C93818128272183832F95E08F5F15
:10439000D3CF95E081E0FBCFDF91CF911F910F91BB
:1043A0000895FC01378180E090E08317A0F4A58197
:1043B000B681A80FB91F2C91A22FB0E0A050BC4F1E
:1043C0004C9146FF06C0263010F022E001C021E0EB
:1043D00023870196EACF80898077A9F486858F703C
:1043E000843028F4823040F4882331F008C08430CF
:1043F00031F4CF010C946421CF010C94B820808952
:104400008F788063808B0895CF93C0E080911504EE
:10441000C817C0F4E0911304F091140481E1C89F1F
:10442000B0011124E60FF71F80898068808B80918E
:10443000130490911404680F791F80E00E94DB1F21
:10444000CF5FE4CFE0910E04F0910F041082109240
:10445000A801E0910C04F0910D0410821092F30376
:1044600010925305CF910895DC0117967C91179710
:1044700040E050E080E061E04717F8F41596ED91D8
:10448000FC911697E40FF51F9081292F30E0F90178
:10449000E050FC4FE081E6FF0DC0963018F42E5F2F
:1044A0003F4F02C026503109962F01C0990F2A951F
:1044B000EAF7892B4F5F5F4FDFCF0895DF92EF92CE
:1044C000FF920F931F93CF93DF9300E08EE0D82EDF
:1044D00080911504081708F045C0E0911304F0918D
:1044E000140481E1089F90011124E20FF31F8089D9
:1044F000807711F00F5FECCFC0911304D0911404BA
:10450000C20FD31FEE85EF70DE9EF0011124EC5C2C
:10451000FE4FE280F380E114F10461F3CE010E94CA
:104520006E208C8590915205891721F320915005BA
:1045300030915105F901E80FF11D10818D85F901C8
:10454000E80FF11D80811827CE010E9434228123BB
:1045500029F0CE01F70109958C858D878C858F5FB9
:104560008C87DFCFDF91CF911F910F91FF90EF905C
:10457000DF900895FC01A085B1859089907F9160BE
:10458000908B148652961C9208958F929F92AF92B0
:10459000BF92CF92DF92EF92FF920F931F93CF9330
:1045A000DF93DC011896ED91FC9119978289909127
:1045B000A201891718F09091A20103C09091A20165
:1045C0008150891B1E969C911E979F7051F09330CD
:1045D00091F428E0CC24CA94DC2CEC2CF12C17E1CB
:1045E0000FC029E138EFC32EDD24DA94ED2CF12C35
:1045F0001FE208E106C020E0C12CD12C760110E0BA
:1046000000E050969C915097392F3F70313061F403
:10461000281750F4907F926050969C935097138A7D
:1046200012861386148615868091A201828B1C96B1
:104630008C911C97C0915005D09151054E01880E68
:10464000911CE401888190E015966D917C911697FC
:10465000EB014881242F30E0463020F4A9014E5F61
:104660005F4F03C0A9014650510902C09595879537
:104670004A95E2F720503C4FE901B880B2942FE010
:10468000B222DB2DD370AC01417055272D2F30E0C5
:104690004217530719F08360D81372C050968C915B
:1046A00050978F70823009F06BC08389801770F14A
:1046B000E401488150E0EB019981292F30E09630E8
:1046C00018F42E5F3F4F02C02650310902C05595A5
:1046D00047952A95E2F741705527052E000C660B89
:1046E000770B982F901B04C0440F551F661F771F30
:1046F0009A95D2F782849384A484B5844829592951
:104700006A297B2942875387648775878F5F838BEC
:104710001817B0F506851785208931890C211D21D0
:104720002E213F2106871787208B318B42855385A9
:1047300064857585C422D522E622F722C286D386F7
:10474000E486F5860C151D052E053F0529F45096C7
:104750008C91509787FF0BC0C686D786E08AF18A76
:1047600050968C915097807F83608F7702C0807FB6
:10477000816050968C931286138614861586138A50
:10478000DF91CF911F910F91FF90EF90DF90CF902D
:10479000BF90AF909F908F9008958F929F92AF920D
:1047A000BF92CF92DF92EF92FF92CF93DF93EC0113
:1047B000ED81FE81E181F0E0E050FC4F908197FBBC
:1047C000992790F9E885F985C684D784E088F1882F
:1047D0008F85807F803211F024E001C022E02C839D
:1047E000992319F0C094D094E0944601570188248D
:1047F000992490E1A922BB24A70196014F70552767
:10480000E7FC1CC0803299F0A8EEB3E00E94AF2A0A
:1048100061587F4F8F4F9F4F26EF34E040E050E0CC
:104820000E94682AA5E0B0E00E94AF2A02C0B90148
:10483000CA01688379838A839B8319C0803249F4D3
:10484000ACEEB9E00E94AF2A68517C4F8F4F9F4F6A
:1048500004C0A0E1B7E20E94AF2A20ED37E040E0BB
:1048600050E00E94682A288339834A835B83892821
:104870008A288B2879F088819981AA81BB81B0959B
:10488000A095909581959F4FAF4FBF4F8883998397
:10489000AA83BB8341E06A85CE01DF91CF91FF906F
:1048A000EF90DF90CF90BF90AF909F908F900C943F
:1048B0004325FC01A085B1858089807F8160808B44
:1048C00083E084831B961D921D921D921C921E975D
:1048D0001F961C921F97148650961C9208950F9352
:1048E0001F93CF93DF93DC011896CD91DC9119973C
:1048F00050968C915097807F826050968C93509701
:1049000015966D917C911697FB018081863010F48D
:1049100022E001C02AEF280F1C968C911C97E09191
:104920005005F09151058F01080F111DF80180818C
:1049300090E002C0959587952A95E2F7482F43703D
:10494000FB018181863010F48E5F01C08650F80132
:10495000208130E08150B90102C0759567958A9534
:10496000E2F7CB0183709927842B4F8574E0479F32
:10497000A0011124E82FE42B4E2FEE0F550B660BF0
:10498000770BFA013197EE30F10500F5EC5AFF4F45
:104990000C94A92A4B855C856D857E854F5F5F4FA2
:1049A0006F4F7F4F08C04B855C856D857E8541507C
:1049B0005109610971094B875C876D877E87509625
:1049C0009C915097907F936050969C938F87DF9136
:1049D000CF911F910F910895FC01A085B1851B9681
:1049E0002D913D914D915C911E97A5E0B0E00E9404
:1049F000AF2A608371838283938341E06285CF0114
:104A00000C944325E9EAF1E083EB93E09183808302
:104A100080E2828314821382E4EFF3E023ED33E03B
:104A200031832083828314821382EBEFF3E083EBE4
:104A300091E09183808320E8228314821382EEEA3E
:104A4000F1E043E352E051834083228314821382D6
:104A500090930F0480930E0423EB32E030930D0407
:104A600020930C049093FA038093F9030895CF9355
:104A7000C82F80FD0E942D1DC1FF03C0CF910C9453
:104A8000E127CF910895EF92FF920F931F93CF9359
:104A9000DF93CDB7DEB764970FB6F894DEBF0FBED5
:104AA000CDBFE62EF42EBC01CE0101960E949D28BA
:104AB0008C01F0FE13C08E2D0E94261D1F930F93B4
:104AC00028E831E03F932F939F938F930E94142BFC
:104AD0000F900F900F900F900F900F90F1FE03C06A
:104AE000C8010E94F72764960FB6F894DEBF0FBE88
:104AF000CDBFDF91CF911F910F91FF90EF9008955F
:104B00009091A20120911A0423FF07C020911A045A
:104B100025FD03C0EBEFF3E002C0E9EAF1E02481F8
:104B200030E040911A0443FF07C040911A0445FD4C
:104B300003C0EBEFF3E002C0E9EAF1E04381241B9C
:104B4000310940911A0443FF07C040911A0445FD02
:104B500003C0EBEFF3E002C0E9EAF1E0428150E08C
:104B60002417350779F22091A201492F50E0291727
:104B700030F02091A20130E0241B350B08C0909149
:104B8000A2012FEF30E0241B350B290F311D2B30F4
:104B900031050CF082C0F89490911A0493FF07C07D
:104BA00090911A0495FD03C0EBEFF3E002C0E9EA2F
:104BB000F1E0248130E090911A0493FF07C09091B6
:104BC0001A0495FD03C0EBEFF3E002C0E9EAF1E05F
:104BD0009381291B310990911A0493FF07C090918A
:104BE0001A0495FD03C0EBEFF3E002C0E9EAF1E03F
:104BF000428150E02417350709F44BC090911A0404
:104C000093FF07C090911A0495FD03C0EBEFF3E00A
:104C100002C0E9EAF1E04081518190911A0493FFCA
:104C200007C090911A0495FD03C0ABEFB3E002C03A
:104C3000A9EAB1E014962C9130E090911A0493FF08
:104C400007C090911A0495FD03C0ABEFB3E002C01A
:104C5000A9EAB1E012969C91E92FF0E03197E223A6
:104C6000F323E40FF51F808380911A0483FF07C0AC
:104C700080911A0485FD03C0EBEFF3E002C0E9EA7E
:104C8000F1E084818F5F84838091C1008062809392
:104C9000C100789480E090E008958FEF9FEF089531
:104CA000F89480911A0483FF07C080911A0485FD4F
:104CB00003C0EEEAF1E002C0E4EFF3E093818091FB
:104CC0001A0483FF07C080911A0485FD03C0EEEA31
:104CD000F1E002C0E4EFF3E08481981709F448C0E2
:104CE00080911A0483FF07C080911A0485FD03C0D8
:104CF000EEEAF1E002C0E4EFF3E0408151818091FF
:104D00001A0483FF07C080911A0485FD03C0AEEA30
:104D1000B1E002C0A4EFB3E013968C9190E0209133
:104D20001A0423FF07C020911A0425FD03C0AEEA30
:104D3000B1E002C0A4EFB3E012962C91E22FF0E0B4
:104D40003197E823F923E40FF51F808190E020914B
:104D50001A0423FF07C020911A0425FD03C0EEEAC0
:104D6000F1E002C0E4EFF3E023812F5F238302C070
:104D70008EEF9FEF789408951F920F920FB60F92C7
:104D800011242F933F934F936F937F938F939F9310
:104D9000AF93BF93EF93FF934091C60080911A04A5
:104DA00083FF07C080911A0485FD03C0EEEAF1E09D
:104DB00002C0E4EFF3E0848190E020911A0423FF25
:104DC00007C020911A0425FD03C0EEEAF1E002C0FD
:104DD000E4EFF3E02381821B910920911A0423FF61
:104DE00007C020911A0425FD03C0EEEAF1E002C0DD
:104DF000E4EFF3E0228130E08217930709F446C024
:104E000080911A0483FF07C080911A0485FD03C0B6
:104E1000EEEAF1E002C0E4EFF3E06081718180919D
:104E20001A0483FF07C080911A0485FD03C0AEEA0F
:104E3000B1E002C0A4EFB3E014968C9190E0209111
:104E40001A0423FF07C020911A0425FD03C0AEEA0F
:104E5000B1E002C0A4EFB3E012962C91E22FF0E093
:104E60003197E823F923E60FF71F408380911A0456
:104E700083FF07C080911A0485FD03C0EEEAF1E0CC
:104E800002C0E4EFF3E084818F5F8483FF91EF91B0
:104E9000BF91AF919F918F917F916F914F913F9172
:104EA0002F910F900FBE0F901F9018951F920F9289
:104EB0000FB60F9211242F934F935F938F939F936D
:104EC000AF93BF93EF93FF9380911A0483FF07C0C2
:104ED00080911A0485FD03C0EBEFF3E002C0E9EA1C
:104EE000F1E0938180911A0483FF07C080911A0436
:104EF00085FD03C0EBEFF3E002C0E9EAF1E0848155
:104F0000981306C08091C1008F7D8093C10048C076
:104F100080911A0483FF07C080911A0485FD03C0A5
:104F2000EBEFF3E002C0E9EAF1E0408151818091CA
:104F30001A0483FF07C080911A0485FD03C0ABEFFC
:104F4000B3E002C0A9EAB1E013968C9190E0209101
:104F50001A0423FF07C020911A0425FD03C0ABEFFC
:104F6000B3E002C0A9EAB1E012962C91E22FF0E082
:104F70003197E823F923E40FF51F908180911A04FB
:104F800083FF07C080911A0485FD03C0EBEFF3E0B7
:104F900002C0E9EAF1E083818F5F83839093C600CA
:104FA000FF91EF91BF91AF919F918F915F914F9141
:104FB0002F910F900FBE0F901F9018958EE091E0EB
:104FC0000895E0E8F5E08EE091E093838283918399
:104FD000808383E08093C4001092C5001092C000CB
:104FE00088E98093C10086E08093C2000895CF9342
:104FF000DF93EC018991882341F0609182057091E3
:10500000830590E00E94412BF5CF8DE891E0DF9180
:10501000CF910C94A72B4F925F926F927F92AF9299
:10502000BF92CF92DF92EF92FF920F931F93CF9395
:10503000DF93CDB7DEB728970FB6F894DEBF0FBE6B
:10504000CDBFFC012A013B01DB01CA01B595A79543
:105050009795879589839A83AB83BC83DB01CA01CB
:10506000BB0F880B982FDC018D839E83AF83B8879D
:1050700029813A814B815C816D81762F862F962F15
:1050800001E00E94BC2AA980BA80CB80DC80ED8040
:10509000FE2C0E2D1E2D0E94D82A59016A017B017B
:1050A000A82F192F04E00E94BC2A0A2F0E94D82A98
:1050B00059016A017B01A82F192F08E00E94BC2A20
:1050C0000A2F0E94D82A59016A017B01A82F192FA3
:1050D00000E10E94BC2A0A2F0E94D82AA22F03E0D6
:1050E0000E94BC2AA87F4A1AA22FAA0FB42DBA1B6D
:1050F000BA3020F0BA50A1E00E94E12A2083318327
:10510000428353836483758386839783B087CF01FB
:1051100028960FB6F894DEBF0FBECDBFDF91CF91BA
:105120001F910F91FF90EF90DF90CF90BF90AF90C5
:105130007F906F905F904F9008958F929F92AF9263
:10514000BF92CF92DF92EF92FF920F931F93CF9374
:10515000DF93CDB7DEB729970FB6F894DEBF0FBE49
:10516000CDBF7B01DC011F961C92FB0180809180EA
:10517000A280B380B501A401B7FE07C0442755271C
:10518000BA01481959096A097B098C01025F1F4F4E
:10519000D12C8EE2C82ED70114968C91D81206C05D
:1051A000BFE0DB1619F0F801C0820CC0CE010196F9
:1051B0000E940B28F8018985805D808349815A818E
:1051C0006B817C81D3940150110941155105610512
:1051D000710509F7D70114968C918F3091F090E307
:1051E000D70114968C91D81618F49293D394F8CFD3
:1051F000D81207C0DF0111978EE28C93329780E3BB
:105200008083B7FE02C08DE28293CF0129960FB64C
:10521000F894DEBF0FBECDBFDF91CF911F910F91EC
:10522000FF90EF90DF90CF90BF90AF909F908F90C6
:1052300008954F925F926F927F92AF92BF92CF92FA
:10524000DF92EF92FF920F931F93CF93DF936B0147
:105250007A018901FA011082F9011082FC01C0E093
:10526000D0E060E070E0CB01BB24BA94A12C20E038
:10527000DF0131913323A9F140ED430F4A30B0F4FF
:10528000232F30E0205331092901330F66087708B6
:10529000A3019201260F371F481F591FAAE0B0E053
:1052A0000E94AF2AB7FC18C0B39416C03D3221F457
:1052B000AA20A1F080E04AC0432F4D7F4C3221F458
:1052C000B7FEF8CFB394D4CF313220F0209781F6D7
:1052D000ED01CECF1C9205C021E0CACFAA24A39431
:1052E000C7CF222339F32AE030E040E050E00E94AB
:1052F0008A2AAA2039F050954095309521953F4F44
:105300004F4F5F4FF60120833183428353831B1439
:1053100014F4F701B0822097C1F08EE5C82E88E022
:10532000D82EF12CF60165917491CE010E94042BC8
:10533000F394892B19F4F801F08207C0F2E0CF0E44
:10534000D11C8AE0F812EECFB5CF81E0DF91CF918A
:105350001F910F91FF90EF90DF90CF90BF90AF9093
:105360007F906F905F904F900895FC0191919923E9
:1053700021F09132D8F380E0089581E00895CF9331
:10538000DF93FC0190E0DF0121912223D9F09130DD
:1053900051F018F0923071F0F6CF91E0223299F38B
:1053A000273281F7F0CF203270F3EB01B983A88365
:1053B00092E0E9CF223219F41C9281E004C0273236
:1053C00011F7FACF80E0DF91CF910895DF92EF924D
:1053D000FF920F931F93CF93DF93FB0111821082F3
:1053E000EC0140E050E090E00AE010E0EE24E394AD
:1053F000F12C2AE0D22E2991222361F180ED820F37
:105400008A3060F430E020533109240F351FD29EDA
:10541000A001D39E500D112490E0EDCF2B33B9F4B1
:10542000CA01B8010E94542A60317105ACF4C70169
:1054300002C0880F991F6A95E2F720813181822B83
:10544000932B9183808340E050E091E0D4CF2032D1
:1054500091F202C0892F01C080E0DF91CF911F91AE
:105460000F91FF90EF90DF900895FC01680F791F76
:105470008AE5E617F70719F091918927FACF089581
:10548000AA1BBB1B51E107C0AA1FBB1FA617B7076A
:1054900010F0A61BB70B881F991F5A95A9F7809586
:1054A0009095BC01CD01089597FB072E16F400944A
:1054B00007D077FD09D00E94402A07FC05D03EF4B2
:1054C000909581959F4F0895709561957F4F0895B0
:1054D000A1E21A2EAA1BBB1BFD010DC0AA1FBB1FF8
:1054E000EE1FFF1FA217B307E407F50720F0A21B6A
:1054F000B30BE40BF50B661F771F881F991F1A94D7
:1055000069F760957095809590959B01AC01BD0100
:10551000CF010895052E97FB1EF400940E94A12A46
:1055200057FD07D00E94682A07FC03D04EF40C9464
:10553000A12A50954095309521953F4F4F4F5F4F91
:10554000089590958095709561957F4F8F4F9F4FEF
:105550000895EE0FFF1F0590F491E02D09940E942D
:10556000ED2AA59F900DB49F900DA49F800D911DD5
:105570001124089597FB10F8169400080F93083033
:1055800098F00850232F342F452F562F672F782F50
:10559000892F902DF4CF05949795879577956795EA
:1055A00057954795379527950A95AAF70F9108952E
:1055B0002A0D3B1D4C1D5D1D6E1D7F1D801F911F03
:1055C00008950024A7FD00942A0F301D401D501D92
:1055D000601D701D801D901D0895A29FB001B39F96
:1055E000C001A39F700D811D1124911DB29F700DEC
:1055F000811D1124911D08959111089581548A519E
:1056000008F4805E855A0895FB01DC018D910590B8
:1056100080190110D9F3990B0895FB01DC01059065
:105620000D920020E1F70895A0E0B0E0EAE1FBE28E
:105630000C943C2EAE01475F5F4F6F8178858D8162
:105640009E810E94D72BE2E00C94582EA0E0B0E09F
:10565000ECE2FBE20C943A2E0F811885F80183816D
:1056600088608383AE01455F5F4F69857A85C80195
:105670000E94D72BF8012381277F2383E4E00C9439
:10568000562E0F931F93CF93DF93FB01238121FDB0
:1056900003C08FEF9FEF2CC022FF16C046815781B9
:1056A000248135814217530744F4A081B1819D01C3
:1056B0002F5F3F4F318320838C93268137812F5F6B
:1056C0003F4F3783268314C08B01EC01FB0100841C
:1056D000F185E02D0995892BE1F6D80116968D917B
:1056E0009C911797019617969C938E931697CE01CF
:1056F000DF91CF911F910F910895EF92FF920F9339
:105700001F93CF93DF93DB0113962C9121FF18C0D9
:105710008B017C01D0E0C0E0F70181917F018823FB
:1057200061F0D8011896ED91FC911997B80109958F
:10573000892B91F3DFEFCFEFEFCF8D2F9C2F02C09E
:105740008FEF9FEFCDB7DEB7E6E00C94542E0F93AA
:105750001F93CF93DF93E0918205F091830523811E
:1057600021FF1BC08C01D0E0C0E0F80181918F01C6
:105770006091820570918305DB011896ED91FC9193
:105780001997882331F00995892B79F3DFEFCFEF53
:10579000ECCF8AE00995892B19F08FEF9FEF02C0BB
:1057A0008D2F9C2FDF91CF911F910F910895ABE02A
:1057B000B0E0EDEDFBE20C942C2E6C017B018A0134
:1057C000FC0117821682838181FFCCC1CE01019634
:1057D0003C01F6019381F70193FD859193FF81913F
:1057E0007F01882309F4BAC1853239F493FD85918C
:1057F00093FF81917F01853229F4B60190E00E94E8
:10580000412BE7CF912C212C312CFFE1F315D8F05F
:105810008B3279F038F4803279F08332A1F4232D81
:1058200020611DC08D3261F0803369F4232D216029
:1058300016C0832D8260382EE32DE4603E2E2AC0F0
:10584000F32DF8601DC037FC2DC020ED280F2A3045
:1058500040F08E32B9F436FC81C1232D2064322E03
:1058600019C036FE06C08AE0989E200D1124922EA3
:1058700011C0EAE02E9E200D1124222EF32DF0629D
:105880003F2E08C08C3621F4832D8068382E02C04C
:10589000883641F4F70193FD859193FF81917F0153
:1058A0008111B3CF982F9F7D9554933028F40C5FCE
:1058B0001F4F9FE399830DC0833631F0833771F01A
:1058C000833509F059C021C0F801808189830E5FBA
:1058D0001F4F88248394912C530113C02801F2E0B8
:1058E0004F0E511CF801A080B18036FE03C0692D17
:1058F00070E002C06FEF7FEFC5010E94C32D4C0125
:105900008201F32DFF773F2E16C0280122E0420EC0
:10591000511CF801A080B18036FE03C0692D70E0F3
:1059200002C06FEF7FEFC5010E94B82D4C01F32D2F
:10593000F0683F2E820133FC1BC0822D90E0881658
:105940009906B0F4B60180E290E00E94412B2A94BF
:10595000F4CFF50137FC859137FE81915F01B601E7
:1059600090E00E94412B21102A9421E0821A910894
:105970008114910471F7E8C0843611F0893641F53D
:10598000F80137FE07C060817181828193810C5FCD
:105990001F4F08C060817181072E000C880B990B86
:1059A0000E5F1F4FF32DFF763F2E97FF09C0909596
:1059B0008095709561957F4F8F4F9F4FF0683F2E78
:1059C0002AE030E0A3010E94CE2D882E861845C023
:1059D000853731F4232D2F7EB22E2AE030E025C00A
:1059E000932D997FB92E8F36C1F018F4883579F050
:1059F000B5C0803719F0883721F0B0C0E92FE061D9
:105A0000BE2EB4FE0DC0FB2DF460BF2E09C034FEC7
:105A10000AC0292F2660B22E06C028E030E005C05B
:105A200020E130E002C020E132E0F801B7FE07C01B
:105A300060817181828193810C5F1F4F06C06081FC
:105A4000718180E090E00E5F1F4FA3010E94CE2D78
:105A5000882E8618FB2DFF773F2E36FE0DC0232D96
:105A60002E7FA22E891458F434FE0BC032FC09C0DC
:105A7000832D8E7EA82E05C0B82CA32C03C0B82C75
:105A800001C0B92CA4FE0FC0FE01E80DF11D8081FC
:105A9000803321F49A2D997EA92E09C0A2FE06C05A
:105AA000B394B39404C08A2D867809F0B394A3FC10
:105AB00011C0A0FE06C0B21488F4280C922C9B18CA
:105AC0000EC0B21460F4B60180E290E00E94412B57
:105AD000B394F7CFB21418F42B1802C0982C212CD1
